:020000040800F2
:1000000020C500209D0100086F180008011200089B
:100010006D18000847030008DF1D000800000000FD
:10002000000000000000000000000000611C00084B
:10003000DD05000800000000F91A00084D1D000849
:10004000B7010008B7010008B7010008B7010008B0
:10005000B7010008B7010008B7010008B7010008A0
:10006000350F0008B7010008B7010008B701000804
:10007000B7010008B7010008B7010008B701000880
:10008000B7010008B7010008B7010008B701000870
:10009000B7010008B7010008B7010008B701000860
:1000A000B7010008B7010008B7010008B701000850
:1000B000B7010008B7010008B7010008B701000840
:1000C000B7010008B7010008B7010008B701000830
:1000D000B7010008DD1D0008B7010008B7010008DE
:1000E000010F0008B7010008B7010008B7010008B8
:1000F000B7010008B7010008B7010008B701000800
:10010000B7010008B7010008B7010008B7010008EF
:10011000B7010008B7010008B7010008B7010008DF
:10012000B7010008B7010008B7010008B7010008CF
:10013000B7010008B7010008B7010008B7010008BF
:10014000B7010008B7010008B7010008B7010008AF
:10015000B7010008B7010008B7010008B70100089F
:10016000B7010008B7010008B7010008B70100088F
:10017000B7010008B7010008B7010008B70100087F
:10018000B7010008B7010008DFF80CD000F09EF8B6
:1001900000480047C93F000820C5002006488047A6
:1001A00006480047FEE7FEE7FEE7FEE7FEE7FEE75C
:1001B000FEE7FEE7FEE7FEE75D1D00088901000897
:1001C00040EA01039B0703D009E008C9121F08C0D9
:1001D000042AFAD203E011F8013B00F8013B521E59
:1001E000F9D27047D2B201E000F8012B491EFBD2D0
:1001F00070470022F6E710B513460A460446194632
:10020000FFF7F0FF204610BD30B505462A460B46E5
:1002100012F8010B13F8014B08B1A042F8D01CB141
:10022000002802D06D1CF1E7284630BD421C10F8B2
:10023000011B0029FBD1801A704710B5002200E095
:10024000521C835C8C5CA34201D1002BF8D1D8B244
:10025000E1B2401A10BD30B504460020034600E06C
:100260005B1C934203D2E05CCD5C401BF8D030BDF8
:10027000034611F8012B00F8012B002AF9D118468A
:10028000704730B505460020034600E05B1C9342F2
:1002900005D2EC5CC85C201A01D1002CF6D130BD2F
:1002A00030B50B46014600202022012409E021FA46
:1002B00002F59D4205D303FA02F5491B04FA02F543
:1002C0002844151EA2F10102F1DC30BD064C074D99
:1002D00006E0E06840F0010394E807009847103416
:1002E000AC42F6D3FFF754FF349300085493000850
:1002F00070B58C1810F8015B15F0070301D110F8E8
:10030000013B2A1106D110F8012B03E010F8016B14
:1003100001F8016B5B1EF9D12B0705D40023521E97
:100320000DD401F8013BFAE710F8013BCB1A921CFF
:1003300003E013F8015B01F8015B521EF9D5A142FD
:10034000D8D3002070BDFEE7002904D0016841F039
:10035000010101607047016821F0010101607047EF
:100360002DE9F04F8FB02B4800F05AF8294800F0E3
:10037000EDF80028FAD12748303000F051F8254830
:10038000303000F0E3F80028F9D1002400944FF059
:10039000C8400190204D0295802603964BF6803789
:1003A00004974FF40078CDF8148006944FF4006958
:1003B000CDF81C904FF4005ACDF820A009940A946F
:1003C0004FF0040BCDF82CB003200C900D940E943C
:1003D0006946104800F0C2F8009410480190029558
:1003E00003960497CDF814800694CDF81C90CDF8B0
:1003F00020A009940A94CDF82CB003200C900D9401
:100400000E9404486946303000F0A8F80FB0BDE8FB
:10041000F08F000028640240020000680077016449
:100420002DE9F043016821F0010101600021016024
:1004300041608160C1600161212141613E493E4AC4
:1004400010394FF03D08904203D1C1F80880BDE853
:10045000F083394A4FF474651832904201D18D60AF
:10046000F5E7354A4FF474163032904201D18E6070
:10047000EDE7314A4FF074674832904201D18F6006
:10048000E5E72D4B2D4A6033984201D1CA60DEE783
:10049000294C2B4B7834A04201D1CB60D7E7DFF851
:1004A00098C0284C0CF1900C604501D1CC60CEE78F
:1004B000DFF884904FF03D5C09F1A809484502D16E
:1004C000C1F80CC0C3E72049DFF87C9008394845E3
:1004D00002D1C1F80080BAE7DFF86C8008F1180893
:1004E000404501D10D60B2E7174D3035A84201D12A
:1004F0000E60ACE7144D4835A84201D10F60A6E765
:10050000114D11496035091FA84201D10A609EE7CB
:100510000D4A7832904201D10B6098E70A4A903236
:10052000904201D10C6092E7074AA83290428ED1E6
:10053000C1F800C08BE70000106002403D000020C1
:10054000400F002000003D201064024001460020C2
:100550000968C90700D001207047000030B5036862
:10056000124A1340CC680A682243D1E905452C435E
:100570002243CC6922430C6A22434C6A22438C6A90
:1005800022434C6B22438C6B22431A430260426924
:1005900022F00703D1E90B2422431A4342610A697E
:1005A00042604A6882608968C16030BD3F801CF04B
:1005B00008B502F055F90023024A694602A002F08C
:1005C00021F908BD492B00086463686F6D652E73BF
:1005D000797465732E6E657400000000704700002A
:1005E00010B500F003F900F019FB10484068C0B9DD
:1005F0004FF4784001F0A0F800F0ACFFC0880CA1E7
:1006000000EB800080B200F00FFF00F0A3FFC08875
:100610004FF6FF7100EB400001EA400009A100F035
:1006200003FFBDE81040012000F0FABC20000020CC
:1006300020202045746865726E657420496E697467
:10064000202020002020202020206661696C656425
:100650002020202020200000184A506803681146FE
:10066000002B896808DB0368DB0505D548608868CE
:10067000401C8860012070470368002B0EDB036874
:100680009B050BD50368DB0508D408600020486093
:10069000012088605068C06850600DE00368002B3E
:1006A0000ADB03689B0507D40368DB0504D48B6869
:1006B0005B1C8B60C0685060002070475C000020AD
:1006C0000649002804D0886940F00200886170471C
:1006D000886920F0020088617047000000900240A5
:1006E0002DE9F0410023124F78604FF0004C44F2A6
:1006F000F458561E14E000EB4314C4F800C0C4F8CC
:100700000480C3EBC31505EB450501EB8505A5602A
:10071000B34203D204F12005E56000E0E0605B1C19
:100720009342E8D30349C8600348B860BDE8F0814C
:100730005C00002000900240503E00200649002846
:1007400004D0886940F4005088617047886920F4BB
:10075000005088617047000000900240F0B500230F
:100760000E4C20604FF48017561E11E000EB43142E
:100770002760C3EBC31505EB450501EB8505A560B7
:10078000B34203D204F12005E56000E0E0605B1CA9
:100790009342EBD302490861F0BD00005C000020E9
:1007A0000090024002680A430260704710B50121C0
:1007B0004C06204601F0B0F92046BDE8104000216B
:1007C00001F0AAB901B581B00198009002E000984B
:1007D000401E009000980028F9D10CBD02488169A4
:1007E00041F4801181617047009002407CB5012185
:1007F00040F2E71001F082F90121880301F0B6F917
:100800004FF48074009403208DF8050002208DF8C9
:10081000040000208DF806008DF80700454D69465C
:10082000284600F092FC0021A00301F0FFF900200F
:1008300001F018FA862100916946284600F085FCEF
:100840000B220121284600F0BEFC0B220221284683
:1008500000F0B9FC0B220721284600F0B4FC0094FC
:10086000354C6946204600F070FC0B2208212046DA
:1008700000F0A9FC3E200090304C6946204600F074
:1008800064FC0B220121204600F09DFC0B2202217A
:10089000204600F098FC0B220321204600F093FC38
:1008A0000B220421204600F08EFC0B22052120465D
:1008B00000F089FC4FF4D0400090214C694620465E
:1008C00000F043FC0B221146204600F07CFC0B227A
:1008D0000D21204600F077FC0B220E21204600F06F
:1008E00072FCCC200090174C6946204600F02DFC8D
:1008F0000B220221204600F066FC0B220321204639
:1009000000F061FC0B220621204600F05CFC0B226B
:100910000721204600F057FC201500900A4C69463C
:10092000204600F012FC0B220A21204600F04BFC6E
:100930007CBD0000000002400004024000080240AC
:1009400000180240001C0240002002400020034921
:100950000968C90700D001207047000000900240DC
:100960001EB50021019102910B4B59680A68C2F330
:100970000D42121F00929A689468012C03D91268E4
:100980009268019201E08A6801920291C9685960F7
:100990009DE80E000EC01EBD5C0000202DE9F04158
:1009A00086B004468846002705970097824E306936
:1009B00020F01C0501A801F0E7F802987F49804A61
:1009C0000144914202D245F0080516E07D497E4A75
:1009D0000144914202D245F00C050EE07B497C4A6D
:1009E0000144914209D37B4908447B49884202D2A1
:1009F00045F0040501E045F0100535614FF4004273
:100A00000021404600F050FAC0B17448FFF7DAFE0A
:100A1000206880B3724D0098401C00900121404630
:100A200000F0B0F9400702D40098A842F3D3009830
:100A3000A84205D1002006B0BDE8F0810020FAE709
:100A400000974FF480520021404600F02DFA08B97B
:100A50000020F0E70098401C00900121404600F083
:100A600091F9800602D40098A842F3D30098A842D6
:100A700002D10020DFE713E000971021404600F08C
:100A800081F9410703D54FF40061216200E027623C
:100A9000800701D5676114E04FF48040606110E089
:100AA000206A0021C0F3CF026069C0F34F00024307
:100AB000404600F0F9F900287CD06FF07F40FFF746
:100AC00081FE316847480140D4E901021043E268E1
:100AD00054F8103F1A43104362681043A268104351
:100AE000E26810432269104362691043A26910430F
:100AF000E2691043226A1043626A143410430843C7
:100B0000306054F8140F61680843D4E902121143AD
:100B100008432169084361690843A1690843E16901
:100B200008437060206AB060606AF060B1694FF697
:100B300041700140D4E90B021043238D626B42EAFD
:100B400003421043A26B1043E26B10430843B061B1
:100B5000D4E910010843F06123488169234A114018
:100B6000D4E912231A43D4E914352B431A43A36D55
:100B70001A43E36D1A43236E1A43636E1A43A36E3E
:100B80001A430A438261D4E91B121143626F54F87D
:100B9000783F1A431143626841EA8201A268114317
:100BA00041F400010160016841F080010160012011
:100BB00041E7FFE700203EE70080024000D3CEFE81
:100BC000C0E1E40040F1E9FD40787D0100796CFC72
:100BD000005A6202001F0AFA80F0FA02FFFF0F00BB
:100BE000FFFF04000F8120FF00900240233FDEF84A
:100BF0000A794B7942EA0322074B184402640A78C7
:100C0000CB7842EA03628B7849781B0443EA0121DE
:100C10000A434264704700000080024000B5AFB054
:100C200001214FF0606000F069FFFFF7BFFD00F0A9
:100C3000D5F8FFF78BFE0128FBD0684600F0E7F8F7
:100C400001200090002007904FF400710A910B9052
:100C50000E901190139014901590209009042191FA
:100C60000A11239225902690042028902991800330
:100C70002A9080012B9040122C9040002E90012150
:100C80006846FFF78BFE024948602FB000BD0000A8
:100C9000200000200649002804D0086840F0040025
:100CA00008607047086820F0040008607047000082
:100CB000008002400649002804D0086840F008007F
:100CC00008607047086820F008000860704700005E
:100CD00000800240F0B50023284D29680A68002AE8
:100CE00001DA0020F0BD40F2F456B04208D9B0FB62
:100CF000F6F2B0FBF6F406FB140414B1521C00E04B
:100D00000122012A2CD10A6842F040520A60C0F345
:100D10000C004860086840F000400860C86828601F
:100D200021E023B92C68276847F0805727604E6080
:100D3000541EA3420ED10C6844F000540C60C2F162
:100D40000104C4EBC41404EB440400EB8404C4F3B6
:100D50000C044C600C6844F000440C60C9685B1CD7
:100D60009342DED3296006484169490703D504212F
:100D70004161002141600120F0BD00005C000020C5
:100D80000090024018B500220092124A136903F045
:100D90001C044FF6FF7303EAC02323434FF4F860AB
:100DA00000EA8110184320F0020040F001001061B9
:100DB00009490098401C00901069C00702D00098B3
:100DC0008842F6D30098884201D1002018BD5069AE
:100DD00080B218BD00800240FFFF04000248016895
:100DE00041F00101016070470090024000B5012010
:100DF000FFF760FFFFF7F2FC0120FFF74BFF012038
:100E0000FFF79CFC01205DF804EBFFF759BC0121C2
:100E10000160002141608160C16001614FF4804246
:100E200042618161C161D210026241628162C1622C
:100E3000016341638163C1634022026420224264F2
:100E40008164C164016541658165C1650166802277
:100E500042668166C166016741678167C167D204E6
:100E6000C0F880205210C0F88420C0F888101311F8
:100E7000C0F88C30C0F89010C0F89410C0F89810EA
:100E8000C0F89C10C0F8A010C0F8A4205212C0F8FE
:100E9000A8209201C0F8AC205212C0F8B020C0F8CF
:100EA000B410C0F8B810704738B500230093124B47
:100EB0001C6904F01C054FF6FF7404EAC0242C439F
:100EC0004FF4F86000EA8110204340F0020040F047
:100ED00001005A61186109490098401C0090186986
:100EE000C00702D000988842F6D30098884201D10A
:100EF000002038BD012038BD00800240FFFF040003
:100F000010B54FF4004000F01DF818B14FF4807098
:100F100000F012F84FF48044204600F013F8002847
:100F200007D0012000F018F82046BDE8104000F07E
:100F300003B810BD70470000014908607047000009
:100F4000143C014001460020024A12680A4200D0C7
:100F500001207047143C014010B51221FFF712FF29
:100F6000800435D51B4C2078C04320704FF4784066
:100F700000F0E2FB20784FF6FF74A0B100F0EAFA2F
:100F8000C08815A100EB800080B200F04DFA00F09F
:100F9000E1FAC08816A100EB400004EA4000BDE879
:100FA000104000F041BA00F0D5FAC0880AA100EB69
:100FB000800080B200F038FA00F0CCFAC08812A1AC
:100FC00000EB400004EA4000BDE8104000F02CBAFD
:100FD00010BD00002000002020204E6574776F7245
:100FE0006B204361626C6520697320200000000063
:100FF0002020202020756E706C7567676564202046
:1010000020202020000000002020206E6F77206329
:101010006F6E6E6563746564202020200000000000
:1010200010B5044611212046FFF7ACFE40F0030244
:1010300011212046FFF738FF60B112212046FFF74B
:10104000A1FE40F0200212212046FFF72DFF18B12B
:10105000012010BD002010BD002010BD8000A0F1B7
:10106000C040002904D0016841F0010101607047CF
:101070000168024A1140016070470000FEFF0F0046
:1010800010B5D0E901121143D0E903231A431143EB
:101090004269114382691143C2691143026A1143D3
:1010A000426A1143826A1143C26A1143026B1143BF
:1010B00002689200A2F1C04211608168082907D13C
:1010C00001688900A1F1C0410A6842F040020A604B
:1010D000416BD1E9002342EA03128B688C891B0221
:1010E00043EA04431A430B8A42EA03520B7D89699F
:1010F00042EA03620A430168491C8900A1F1C04128
:101100000A60C16AB1F5804F08D000686FF0704185
:101110008000A0F1C040C0F8041110BD816BD1E97E
:10112000002342EA03128B680C8A1B0243EA045331
:101130001A430B7D896942EA036200680A43800012
:10114000A0F1C040C0F8042110BD2DE9F0410022FB
:1011500001274FF0030C07FA02F50B682B40AB4256
:101160002CD1066853000CFA03F4A64306600E79EE
:10117000D0F800809E4046EA080606600E79012EEF
:1011800001D0022E12D18668A64386604E79D0F82F
:1011900008809E4046EA080686604668AE43466080
:1011A00045688E799640B6B235434560C568A5431B
:1011B000C560CC799C40C3681C43C460521C102A93
:1011C000C9D3BDE8F08110B54B07DB0E9A40C908C2
:1011D00000EB8100016A0F249C40A1430162016A77
:1011E0001143016210BD0246002012690A4200D07C
:1011F00001207047002A01D0018370474183704766
:10120000FEE7000010B54FF0D0412C200880FFF71A
:10121000A7F80B4C01212046FFF796F82046FFF770
:1012200095F90028FAD1064C012130342046FFF709
:101230008BF82046FFF78AF90028FAD110BD00008C
:10124000286402400021054A054B926822F81100EB
:10125000491C9942FAD3FFF7D5BF000028000020AF
:10126000007701002DE9F0414FF4C87141430E466B
:1012700000EBC00202EB0015134F4FF4C87000EBF7
:101280000512B86803E07B8820F81130491C8A42B7
:10129000F9D801244FF448780EE004EBC40000EBC9
:1012A0000410B96806EB001001EB400001EB45119A
:1012B0004246FEF785FF641C7868C088A042ECD8DF
:1012C000BDE8F041FFF79EBF280000201CB50121BA
:1012D000782000F013FC4CF23370009002208DF85F
:1012E00004008DF8050000208DF806008DF8070039
:1012F0003F4C69462046FFF728FF0C22002120467C
:10130000FFF761FF0C2201212046FFF75CFF0C2252
:1013100004212046FFF757FF0C2205212046FFF746
:1013200052FF0C2208212046FFF74DFF0C22092115
:101330002046FFF748FF0C220A212046FFF743FF13
:101340000C220E212046FFF73EFF0C220F212046E3
:10135000FFF739FF4FF680700090264C6946204613
:10136000FFF7F3FE0C2207212046FFF72CFF0C228B
:1013700008212046FFF727FF0C2209212046FFF70E
:1013800022FF0C220A212046FFF71DFF0C220B2111
:101390002046FFF718FF0C2211462046FFF713FFE7
:1013A0000C220D212046FFF70EFF0C220E212046B5
:1013B000FFF709FF0C220F212046FFF704FF012051
:1013C00000900D4C69462046FFF7BFFE0C2200211D
:1013D0002046FFF7F8FE20150090084C694620468D
:1013E000FFF7B3FE0C220A212046FFF7ECFE1CBDDE
:1013F000000C02400010024000140240001802409D
:1014000010B404460B46203AD2B206484068016840
:10141000C088504301EB4002214610BC184600F042
:101420001FB80000280000202DE9F04180460D463D
:1014300000240A4E4FF4C87708E021464046FFF7E3
:10144000DFFF70688088204484B26D1C2A780AB15E
:10145000BC42F2D3BDE8F041FFF7D4BE2800002023
:101460002DE9F0470024DFF89080D8E901C73CE07F
:10147000002335E00C26B5FBF6F6F6004FF08009A8
:1014800009FA06F932F8146049FA03F919EA060F65
:1014900001D10C2D08D94FF0010909FA03F916EA18
:1014A000090F0FD10C2D0DD9B8F802600D1905EBFD
:1014B000C50A00EB03090AEB051509EB051527F82A
:1014C00015600CE0B8F800600D1905EBC50A00EBDB
:1014D00003090AEB051509EB051527F815605B1CD8
:1014E000BCF804509D42C5D8641CBCF80630A34229
:1014F000BED8BDE8F08700002800002000B597B0F6
:101500000121084600F024FB0120019000200290F8
:1015100009210391049005900690079004210891F9
:1015200009900A9010210B910C900D900E900F9045
:1015300010900902119112901390149001A8159027
:10154000169008A8FFF79CFD01210420FFF786FDF7
:1015500017B000BD01484068704700002800002017
:1015600070B50121880500F0C9FA26494FF0C8403E
:1015700088604FF40001FEF73CFEFFF7A7FEFFF77F
:10158000BDFFFEF7EDFE012000F08EFE4FF0D044CF
:1015900001262680D02020800720608066800820D9
:1015A0006080D12020800025658071206080192016
:1015B0006080D220208066804420608011202080BE
:1015C0000A2000F071FE36202080282060803A201A
:1015D0002080552060802A2020806580658066807C
:1015E0008F2060802B202080658065806580EF20C3
:1015F000608029202080BDE8704002480C3000F057
:1016000095B800002800002008484FF6FF7181803F
:101610000021C180018141818181C181012202704B
:1016200041708170C1700182704700006800002025
:1016300010B5FFF7E9FFBDE810400020FFF702BE3C
:1016400070B505461F2000F069F8FFF783FF0446D8
:10165000E088C0F1F00080B2FFF704FEE088294680
:10166000C0F1F00080B2FFF7DFFEBDE8704000205F
:1016700000F054B82DE9F0418EB0074600243D46F5
:101680000020FFF7DFFD234800F050F8FFF762FF6E
:1016900006464FF6FF78404600F04EF81F2000F057
:1016A0003DF800E0641C15F8010B0028FAD1B08861
:1016B0004FF4C873B3FBF0F1A14201D2B3FBF0F4D5
:1016C0000021202201A84254491C3229FBD30021C9
:1016D00008E0B2887D5CB3FBF2F2121B01EB520210
:1016E0008554491CA142F4D30020FFF7BBFDF088CC
:1016F00001A9FFF799FEF08808EA4000FFF7B2FD64
:10170000002000F00BF8044800F010F80EB0BDE81F
:10171000F08100003C0000204400002001B5BDF82D
:1017200000000149488008BD2800002001494860A8
:10173000704700002800002001B5BDF800000149F5
:10174000088008BD2800002010B58CB002F0A6FC6F
:1017500002F08CFD214801F0A8FD0B906FF0FF0016
:1017600001F0A3FD0A901D48183801F09EFD099074
:10177000192000248DF82140A8238DF82230C022A2
:101780008DF82320CDE9004015A103A800F028FB27
:10179000FFF7E0FEC0884FF6FF7101EAC00014A118
:1017A000FFF742FEFFF7D6FEC08803A900EBC0009A
:1017B00080B2FFF739FE15491348CDE90041029088
:1017C00009AB0AAA0BA9124802F08CFD104802F0DE
:1017D000C5FD0F4802F013FE0CB010BD1900A8C0E3
:1017E000202025642E25642E25642E25640000000B
:1017F00020205374617469632049502061646472CD
:1018000065737320202000005D300008B9300008A7
:101810003401002031B5114C00986168401AFA2853
:1018200003D30098606005F025F80098A168411A7C
:1018300041F28830814203D30098A06001F0E6FBBA
:101840000098E168401A4EF66021884205D300985E
:10185000E060BDE8384005F0ADBA38BD08000020B2
:10186000014801F03DBC000034010020FEE7704754
:1018700070B598B00121782000F040F901210846A8
:1018800000F066F9984E0C2200213046FFF79BFCD1
:101890000C2201213046FFF796FC0C220421304631
:1018A000FFF791FC0C2205213046FFF78CFC0C223F
:1018B00008213046FFF787FC0C2209213046FFF74C
:1018C00082FC0C220A213046FFF77DFC0C220B2102
:1018D0003046FFF778FC0C2211463046FFF773FCC8
:1018E0000C220D213046FFF76EFC0C220E213046F3
:1018F000FFF769FC0C220F213046FFF764FC4FF61E
:101900003371009102258DF8045003218DF80510E4
:1019100000248DF806408DF8074069463046FFF7F1
:1019200014FC724E0C2200213046FFF74CFC0C22B6
:1019300001213046FFF747FC0C2202213046FFF719
:1019400042FC0C2203213046FFF73DFC0C2204210F
:101950003046FFF738FC0C2205213046FFF733FCF8
:101960000C2206213046FFF72EFC0C2207213046C0
:10197000FFF729FC0C2208213046FFF724FC0C223B
:1019800009213046FFF71FFC0C220A213046FFF7E1
:101990001AFC0C220B213046FFF715FC0C221146D5
:1019A0003046FFF710FC0C220D213046FFF70BFCF0
:1019B0000C220E213046FFF706FC0C220F21304688
:1019C000FFF701FC4FF6FF71009169463046FFF7C3
:1019D000BCFB474E0C2200213046FFF7F4FB0C22E3
:1019E00001213046FFF7EFFB0C2202213046FFF7C2
:1019F000EAFB0C2203213046FFF7E5FB0C22042111
:101A00003046FFF7E0FB0C2205213046FFF7DBFBF9
:101A10000C2211463046FFF7D6FB0C220D21304632
:101A2000FFF7D1FB0C220E213046FFF7CCFB0C2236
:101A30000F213046FFF7C7FB4FF23F010091694687
:101A40003046FFF782FB2B4E0C2200213046FFF779
:101A5000BAFB0C2201213046FFF7B5FB0C22022114
:101A60003046FFF7B0FB0C2203213046FFF7ABFBFB
:101A70000C2204213046FFF7A6FB0C22052130463C
:101A8000FFF7A1FB0C2209213046FFF79CFB40F237
:101A90003F21009169463046FFF757FB02950394BA
:101AA0000B20049001200590069407940894099552
:101AB0000A9404200B9010200C900D940E940F9417
:101AC000109411940002129013941494159402A887
:101AD0001690179009A8FFF7D3FA01210220FFF70B
:101AE000BDFA18B070BD0000000C024000100240AA
:101AF000001402400018024070470000054A002907
:101B000003D011680143116070471168814311606F
:101B10007047000030380240054A002903D01168A0
:101B200001431160704711688143116070470000E4
:101B300010380240054A002903D0116801431160A2
:101B400070471168814311607047000034380240CB
:101B5000054A002903D011680143116070471168DC
:101B6000814311607047000038380240054A00295F
:101B700003D01168014311607047116881431160FF
:101B8000704700004438024070B5244B196801F0DA
:101B90000C01234C00291ED0224E04291DD00829F7
:101BA0001DD00460196801F0F00109091E4A545C57
:101BB0000168E14041601C6804F4E054A40A145D2B
:101BC00021FA04F484601B6803F460435B0BD25C6D
:101BD000D140C16070BD0460E4E70660E2E70F4AEF
:101BE000121F1168C1F38055116801F03F0135B132
:101BF000B6FBF1F11468C4F38814614305E0B4FB4B
:101C0000F1F11468C4F3881461431268C2F301420D
:101C1000521C5200B1FBF2F10160C3E708380240E8
:101C20000024F40040787D014C000020034B1A682A
:101C300022F0EC62084310431860704708380240F5
:101C40000649002804D0086840F004000860704786
:101C5000086820F004000860704700000008065083
:101C6000704700000149086070470000DC0027420F
:101C70000CB50022019200922F49086840F4803090
:101C800008604FF4A043086800F400300090019809
:101C9000401C0190009810B901989842F3D108684F
:101CA000800302D50120009000E000922248009AB3
:101CB0000830012A2FD1204A4032136843F0805364
:101CC00013601E4A136843F44043136002680260C5
:101CD000026842F400420260026842F4A0520260CC
:101CE000031F174A1A600A6842F080720A600A6885
:101CF0009201FCD5134B40F205621A60026822F093
:101D000003020260026842F0020202600268C2F34B
:101D10008102022AFAD1026822F400020260064817
:101D2000094A84300260086840F0806008600868F2
:101D30000001FCD50CBD00000038024000700040DE
:101D400019544007003C02408040003010B500F0BC
:101D50003BF8BDE8104000F02FB8000010B5124865
:101D6000016841F4700101601048016841F001010F
:101D700001600E4A00210832116002680C4B1A40C3
:101D80000260031D0B4A1A60026822F4802202607E
:101D900006480C300160FFF76BFF03494FF000600D
:101DA0008039086010BD000088ED00E00038024076
:101DB000FFFFF6FE10300024024801680A3101607E
:101DC000704700000000002003484168002902D04D
:101DD0004168491E41607047000000207047FEE7DF
:101DE0000FB4084B10B504A902AA039800F01CF820
:101DF000044602A9002000F0F3F8204610BC5DF86C
:101E000014FB0000E11F000802E008C8121F08C10F
:101E1000002AFAD170477047002001E001C1121F6B
:101E2000002AFBD1704700002DE9FF4F8BB09A4686
:101E30000F460546002606E025280BD052460D9990
:101E400090476D1C761C28780028F5D10FB03046DD
:101E5000BDE8F08F0024A0460122604900E0044361
:101E600015F8013F203B02FA03F00842F7D1287829
:101E70002E2817D115F8010F44F004042A280ED09B
:101E80006FF02F022878A0F1300109290AD808EB59
:101E9000880102EB410100EB01086D1CF2E757F8E5
:101EA000048B6D1C287869283ED006DC0028CDD034
:101EB00063280BD0642804D136E0732810D075282D
:101EC0004BD052460D999047761C85E017F8040BCD
:101ED0008DF8000000208DF80100E946012003E0A4
:101EE00057F8049B4FF0FF3061074FF0000401D416
:101EF0000AE0641C44450DDA8442FADB19F8041048
:101F00000029F6D106E0641C8442FCDB19F80410B9
:101F10000029F8D1264404E019F8010B52460D9926
:101F20009047641EF8D257E001CF4FF00A0B00280B
:101F300002DA40422D2102E0210504D52B218DF843
:101F40002410012103E0E10705D02021F7E70DF17E
:101F5000200908910CE00021F9E701CF4FF00A0BAE
:101F6000F9E75946FEF79CF901F1300209F8012D15
:101F70000028F6D1ADEB090000F1200B600701D479
:101F80004FF00108D84502DDA8EB0B0000E000206F
:101F90008046002406E009A85246005D0D9990474E
:101FA000641C761C08988442F5DB04E0302052461D
:101FB0000D999047761CB8F10001A8F10108F5DCF5
:101FC00005E019F8010B52460D999047761CBBF1BC
:101FD0000001ABF1010BF4DC6D1C34E709280100B2
:101FE0000A68531C0B601070704700001FB5416AEF
:101FF000064B0122CDE90013CDE9021200F12B03BB
:102000001946034A00F07AFF04B010BD6A92000836
:10201000649200087FB50446606A002830D00079D9
:1020200000282DD02434E0798DF80000207A8DF836
:102030000100607A8DF80200A07A8DF80300E07A42
:102040008DF80400207B8DF80500D1F80E20039256
:102050008D69029554F8240908310379012B10D0B9
:10206000022B01D1437963B10068824208D1062274
:102070006846FEF7F0F8002802D0204600F038F855
:102080007FBD0068824207D08542F9D106226846AA
:10209000FEF7E1F80028F3D0204600F03BF87FBDC2
:1020A00070B504460E4624340E4DE07A217B40EA9A
:1020B0000120284401F0F9F802F0AFF92168497ACB
:1020C0000844094980B20843A84201D200F57E4085
:1020D0000649884201D9A0F57E4001F0E6F830605B
:1020E00070BD00000001FEA90000FEA9FFFEFEA9D0
:1020F00010B50446606A007A002804D02046BDE886
:10210000104000F007B82046FFF770FF616A6420B6
:10211000087210BD2DE9F04105466C6A002728467B
:1021200002F006F910B1284602F01EF900266E6092
:10213000AE60EE608CB12671E68066712660267214
:1021400021462846FFF7ACFF607A401C60722846A3
:1021500000F010F83846BDE8F0810A2001F0B8FF21
:10216000044624B12660666026816C62E8E74FF081
:10217000FF30F0E710B550F8241F01220A71002249
:102180004A71C27A037B447A42EA0362837A006826
:102190001B0443EA04231A43002801D0407A00E0DC
:1021A000002010440A22B0FBF2F302FB1300C880A7
:1021B000487A0A2802D94FF41670C88010BD000072
:1021C00010B5A0B007A8FEF731F81E4800901E49D0
:1021D000D0E9052307A8FFF703FE07A8FEF726F8B6
:1021E0001A4C82B2012307A9206904F06EFB88B162
:1021F00094F9002016A102A8FFF7F2FDFFF7AAF953
:10220000C08802A900EB800080B2FFF70DF9012021
:1022100020B010BD206903F057FA80B194F9002076
:1022200011A102A8FFF7DCFDFFF794F9C08802A90D
:1022300000EB800080B2FFF7F7F80120E8E700200C
:10224000E6E700006C010020709200080800002002
:1022500020205752495445204552524F523A20436C
:102260006F64653A20256400202053454E54204574
:1022700052524F523A20436F64653A202564000061
:1022800010B504460021204602F0B2FC0021204691
:1022900004F096F90021204604F052F82046BDE8EB
:1022A000104002F0A7BC000001B581B005490198BB
:1022B0004843009002E00098401E009000980028DB
:1022C000F9D10CBDA086010000224262426A92B29E
:1022D0008A42FBD9704700280BD0026A002A08D036
:1022E000937C082B05D10968926A914201D100F0D4
:1022F00083B8704770B50546002D0DD02C6A74B1B7
:1023000000224FF49A71104602F08BF8606148B1D8
:10231000E27C37494AB10BE06FF0090070BD6FF005
:10232000080070BD4FF0FF3070BD0A68521C0A6093
:10233000096821604068A06101210170A0694170B5
:10234000A16906208870A0690026C670206800F088
:10235000ACFFA1694860A0690681A0694681A069B7
:10236000C660A07C0A2803D0052801D0042802D129
:10237000A1696868C860A0690661A0694661A06932
:102380008661002195F82A00884203D9681890F8E0
:102390002B0000E00020A36901F11C029854491CA5
:1023A00089B21029EED30020A26900F12C01565405
:1023B000401C80B24028F7D30020A26900F16C01D4
:1023C0005654401C80B28028F7D30A4800F06DFFB5
:1023D000A169C1F8EC00A6830020A26900F1F00118
:1023E0005054401C80B24428F7D3002070BD000038
:1023F0007C00002063538263F8B505462C6A0C21EB
:10240000204600F093F82846FFF774FF0646300098
:1024100027D101223521204600F040F80421204632
:1024200000F04AF804223221204600F037F8A06A72
:1024300001F0F3FF0146204600F045F8204600F089
:102440005FF8A08BF03081B2606902F084F90095EA
:1024500043230A4A6169606804F0FDFB284600F0E6
:102460000FF8E07C401CE07442F603104FF4FA7160
:10247000B0FBF1F0E0833046F8BD00006092000848
:1024800010B5002809D0046A002C06D0606908B194
:1024900002F004F900206061A06110BD10B5838BCB
:1024A0005C1C84838469F033E154818B4B1C8383EF
:1024B0008069F031425410BD828B531C8383806944
:1024C000F0328154704710B5828B0C0E531C8383FD
:1024D0008369F0329C54828B0C0C531C8383836978
:1024E000F0329C54828B0C0A531C83838369F03234
:1024F0009C54828B531C83838069F032815410BDBD
:10250000002812D0818BFF234A1C82838269F0311C
:102510005354002304E04A1C82838269F0315354EF
:10252000818B4429F7D38A07F5D17047827C8A4290
:1025300002D081740021C174704700002DE9FC5F56
:1025400005464FF00008DFF82CA156464FF08044B6
:10255000208840F0010020800020DFF81C910090CE
:102560000346019001228021484600F08BFE802125
:10257000484600F078FE44F250612046FFF7A4FE82
:102580008021484600F08EFE28212046FFF79CFE61
:1025900000231A468021484600F06AFE4FF0FF3BB8
:1025A00004E0761E002E01DCD84605E08021484676
:1025B00000F05CFE0028F4D05746B8F1000F05D0BB
:1025C0000AE07F1E002F01DCD84605E08021484646
:1025D00000F04CFE0128F4D0B8F1000F2BD10024FC
:1025E0000027564604E0761E002E01DCD84605E0A2
:1025F0008021484600F03AFE0028F4D08021484669
:1026000000F034FE012803D11E218007FFF75CFE95
:10261000285D400028558021484600F027FE01280B
:1026200013D0285D00F0FE0028557F1C082FD8DB52
:10263000641C052CD4DB4FF08040018821F001019F
:102640000180B8F1000F09D010E02821C806FFF77B
:102650003BFE285D40F001002855E6E72878A97880
:1026600008442979884201D06FF001084046BDE84E
:10267000FC9F0000A08601000014024070B50246D5
:10268000C2EBC2002A4900EB800001EBC0042078B5
:10269000002816D0C2EBC201254B01EB810103EBF0
:1026A000C103002601250C3301280BD0022814D0C9
:1026B000032806D1A068401EA06002D12670C4F88D
:1026C000106170BD0220207030466670A570E07009
:1026D000BDE87040194600F0C1B9A078401E10F066
:1026E000FF00A070EDD1E078401CC0B2E07004287B
:1026F00006D0A0706078BDE87040194600F0AEB911
:102700006078401C022807D20A4951F8201019B1FC
:102710006070A570E67070BDD4F8105125B100212D
:102720001846D4F81421A8472670C4F8106170BD6B
:102730005C3E00208800002030B5032311F8012BF7
:10274000B3EB921F10D009E004780D78AC4201D0B1
:10275000012030BD491C401C521ED2B2002AF3D1C8
:10276000401C0A78002AE9D1002030BD2DE9F0474D
:10277000814600231F460024DFF88080DFF880C0F8
:1027800098F80060C4EBC40000EB80000CEBC000C4
:1027900005785DB1032D05D10579751BBD4201DDBD
:1027A000EFB22346641CE4B2042CEBD3042C10D10A
:1027B000042B07D2C3EBC30000EB80001CF83040B1
:1027C000032C03D04FF0FF30BDE8F0871C460CEB24
:1027D000C000012303700671761C88F80060C0F801
:1027E0001011C0F8142149460C30FDF741FD204678
:1027F000FFF744FF6FF00D00E6E7000080000020C7
:102800005C3E00202DE9F04105460C4616461F4669
:1028100012484068002808D03CB135B1287820B172
:102820002846FDF703FDFF2803D96FF00800BDE837
:10283000F081284600F028FE2060401C05D1284683
:1028400000F038F82060401C01D00020EFE73A4645
:1028500031462846BDE8F041FFF788BF80000020E0
:1028600038B50DA000F010FE00900F4C60680028F5
:1028700011D104F0CBF9606000280CD000220B4984
:1028800004F09CF800220A49606804F0CDF969461A
:10289000002000F045F938BD3230382E36372E3260
:1028A00032322E3232320000800000205C9200086A
:1028B0002529000870B506460024104DC4EBC4015C
:1028C00001EB810115F83100032806D105EBC101A8
:1028D0000C313046FDF7B1FC30B1641CE4B2042C7D
:1028E000ECD34FF0FF3070BDC4EBC40000EB8000B0
:1028F00005EBC000D0F80C0170BD00005C3E00206C
:10290000032210F8011BB2EB911F08D002E0401C1B
:10291000491EC9B20029FAD101780029F1D1401C21
:10292000704700002DE9FE4317463A89B2F5007F53
:1029300073D81A2A71D300234649384601F078FE2D
:102940003989884269D1434E308800F0BAFCC0B260
:10295000042862D2C0EBC00000EB8000A6F58C61B9
:1029600001EBC0042078022857D103202070F078B2
:1029700000F00F006071B08800F0A3FC00F0FF08C9
:10298000F08800F09EFCC5B2B078000638D56079BA
:10299000B0BBB8F1010F33D106F10C0104F10C000A
:1029A0000E468046FFF7C8FE50BB3046FFF7A8FF33
:1029B000001D23E0FFF7A4FF06463168009171680F
:1029C00001913089ADF80800BDF8000001F027FD45
:1029D00001280BD1BDF8020001F021FD012805D12D
:1029E000BDF8080001F01BFD04281BD0BDF808004D
:1029F00000F067FC30440A306D1EEDB2002DD9D1D5
:102A0000D4F810312BB1002104F10C00D4F81421BA
:102A1000984700202070C4F810013846BDE8FE43F6
:102A200001F03CBE019801F0F8FCA0600A49884220
:102A300000D9A160D6F80A00C4F80C01D4F810310E
:102A4000002BEAD004F586714046D4F8142198474B
:102A5000E3E70000BC420020803A09002DE9F8437A
:102A600080460D46914600224FF48871104601F0D1
:102A7000D8FC064630004CD0746800272760676099
:102A8000A760484600F01DFC20800120A07000F0E7
:102A900018FCA0800C346D1E6D1C2246641C0020A6
:102AA00004E004F8011B401CC0B26D1C29782E29DB
:102AB00001D00029F5D1107028780028ECD104F855
:102AC000017B012000F0FDFBADF80000012000F0CB
:102AD000F8FBADF8020000982060B088201A001DB5
:102AE00081B2304601F037FE0C48352200EB8801F8
:102AF000A0F108050C46686803F092FF22463523D2
:102B00003146686804F093F80446304601F0C6FD8B
:102B100001E04FF0FF342046BDE8F8838800002034
:102B200002280DD2074A5268002A09D0002907D08E
:102B30000968002904D0034A083202EB80000160D2
:102B400070470000800000202DE9FC410C46FEF794
:102B500001FDC08811A100EB800080B2FEF764FC8B
:102B6000164821684161206801F057FCC5B2206811
:102B700001F053FCC0F30726206801F04EFCC0F3BF
:102B80000747206801F049FCCDE90065020E3B468D
:102B90000BA10E48FFF724F9BDE8FC8120205375F6
:102BA000636365737320746F207265736F6C7665F1
:102BB00020646F6D61696E21000000000800002034
:102BC00025752E25752E25752E2575006C01002086
:102BD0002DE9FC4706460F469046002E06D0B8F871
:102BE0000A002A2804D2404601F058FDBDE8FC87BF
:102BF000D8F8045005F10E04012000F062FB218892
:102C0000884214D140F2046000F05BFBA188884246
:102C10000DD14FF4006000F054FB6188884206D16A
:102C200040F6060000F04DFBA989884203D04046DB
:102C300001F034FDDAE721463046FFF7EBF9D4F82E
:102C40000E000190A1690091706820B1814205D108
:102C50004FF0010904E04FF0000901E04FF00009D6
:102C6000B9F1000F07D0012304F1080201A9304691
:102C700004F04CF806E0002304F1080201A93046F4
:102C800004F044F8E08800F01CFB012802D0022880
:102C90002ED129E0B9F1000F2AD0022000F011FB5B
:102CA000E080D4F80E00A0617068C4F80E00062021
:102CB000716A19B1097909B10F4A0EE004F10802ED
:102CC0000BE0401EC0B221180B7A8B74135C2B549E
:102CD0003B5C0B722B18395C99710028F1D1B269F9
:102CE00041463046904703E001A93046FFF7F3FA2A
:102CF000404601F0D3FC79E76492000830B4002824
:102D00000FD04A6802F10E018368CC6845681C4008
:102D10001D40AC4205D10023921D30BC0C3103F0A4
:102D2000F5BF30BC704700002DE9FC4105460E465A
:102D300014460E21304601F0DAFC18B16FF00100A4
:102D4000BDE8FC812946204600F05CFC08B1234B1D
:102D500028E04FF0704001F060FB216800EA0107B5
:102D60004FF0604001F059FB874222D101208DF8DD
:102D7000000000208DF801005E208DF80200206820
:102D800001F04BFBC0F306408DF80300206801F012
:102D900044FB000A8DF80400206801F03EFB8DF82A
:102DA00005006B4605F12B023146284600F014F968
:102DB000C6E7A86821686A6801400240914203D0D2
:102DC000E86838B105F10C0432462146284600F087
:102DD00007F8B5E76FF00300B2E70000649200085F
:102DE0002DE9F05F82460C4616460AF12B0B4FF098
:102DF000FF395146204600F005FCF0B94FF0704015
:102E000001F00BFB216800EA01054FF0604001F082
:102E100004FB854211D084B1206870B101212046A5
:102E200000F074F900280ADBDFF8CC8000EB8007A3
:102E300008EB8705A87B20B105E06FF00900BDE82D
:102E4000F09F0120A873A87B012800D026B9214655
:102E5000504600F0AFF88146EEB3A87B022802D0BE
:102E6000012809D046E005F108035A46314650468C
:102E700000F0B2F881463DE00021344605E0207BB9
:102E8000012801D0012102E02468002CF7D181B192
:102E900021890022032001F0C4FA05466DB13146B4
:102EA000284601F07AFB40B1284601F0F7FB0025E7
:102EB00003E03546284601F075FC65B1062001F0B7
:102EC00001FA0146080012D0002008604D6058F851
:102ED000270010B906E00DE010460268002AFBD179
:102EE000016001E048F827104FF0000902E0284691
:102EF00001F0D4FB4846A2E754C000202DE9F05F62
:102F00000746DDF82CA088469346994600222A21E0
:102F1000032001F086FA064630000ED0756805F1F0
:102F20000E040D9800F0CDF9E0800620796AC1B159
:102F30000979B1B1DFF878B013E04FF0FF30BDE8A8
:102F4000F09F401EC0B2211819F800200A721AF82A
:102F500000208A741BF8001029542A1818F8001051
:102F600091710028EDD10A980068C4F80E000C9801
:102F70000068A061012000F0A4F920804FF40060F7
:102F800000F09FF9608040F2046000F09AF9A080A0
:102F900040F6060000F095F9A881BA693146384636
:102FA00090470446304601F079FB2046C7E7000011
:102FB000649200081FB50123064C021DCDE90213DF
:102FC000CDE9002400F12B031946A21FFFF796FF5D
:102FD00004B010BD6A9200082DE9F04106460F4684
:102FE0007D680624641EE4B2185D28552919105D19
:102FF0008871002CF6D14FF4006000F062F9A881CE
:1030000039463046B269BDE8F04110472DE9F0413C
:103010000024114FA04604EB840607EB8605E87BED
:10302000401CC0B2E873A97B022901D1F02803D269
:1030300001290AD1022808D357F8260018B100F058
:1030400003F947F8268085F80E80641CE4B20A2C48
:10305000E1D3BDE8F081000054C0002070B5044603
:103060000D466068808900F02CF9B0F5006F08D03B
:10307000A0F50060063817D0204601F00FFB0020B5
:1030800070BD21462846FFF739FE6FF00D0120463E
:1030900001F02DFB18B1204601F000FBEFE72946B7
:1030A000204600F06DFBEAE7224605F12B01284699
:1030B000FFF78EFDE3E7000010B5732180F83210B2
:1030C000742180F83310044941610449816100F0A2
:1030D000C7FE002010BD0000292D00085D3F00083C
:1030E00070B50546284600F0F5FE044654B12A693D
:1030F000294620469047054615B1204601F0CEFAF4
:10310000284670BD4FF0FF3070BD00002DE9F35F21
:1031100004464FF00A0AD3460A2200218C4688460C
:1031200096468946464E002C0FD04648007800EB64
:10313000800306EB83039D7B022D06D125685B6827
:103140009D4202D140B2BDE8FC9F0A2A05D101EBA5
:10315000810006EB8000807B48B101EB810306EB28
:103160008300857B012D04D0022D1CD02AE04AB2B9
:1031700028E03CB125684768BD4203D13148017061
:1031800048B2E0E756F8233033B1C37B4B4519D33F
:103190004FFA81FE994615E0C57B654512D34FFA7B
:1031A00081FAAC460EE03CB123684568AB4203D1DE
:1031B0002448017048B2C6E7C77B474502D34FFA9F
:1031C00081FBB846491CC9B20A29BED34FF0FF3172
:1031D0000A2A02D10198C00702D00198800701D5C0
:1031E0000846B0E700270A2A01DAD5B218E0BBF199
:1031F0000A0F02DA0BF0FF0512E0BAF10A0F02DA49
:103200000AF0FF050CE0BEF10A0F16DA0EF0FF051A
:1032100005EB850856F8280000F016F846F82870E7
:1032200005EB850006EB800087730CB121684160D7
:10323000C7730448057068B285E7084683E7000055
:1032400054C000203001002070B5044608E0254637
:103250002468686801F022FA2946062000F0FAFF87
:10326000002CF4D170BD0022FDF7C4BFFDF7BBBF39
:103270001CB500918DF804208DF807306946FDF7E4
:1032800064FF1CBD7CB5DDE9064500918DF8042086
:103290008DF805308DF806408DF807506946FDF72A
:1032A00054FF7CBD0122FDF7A5BF010600F47F425B
:1032B00041EA022100F47F0241EA122141EA106052
:1032C00070470106090C41EA102070470A460321A5
:1032D00000F0A2B82DE9FF47054688466C682088B3
:1032E00001F09DF8C0F30320870079428946284603
:1032F00001F0FDF900287DD1288904287AD3686877
:10330000007808287CD101264FF0704001F085F844
:10331000216900EA010A4FF0604001F07EF8824521
:1033200000D10026414604F1100000F06BF900B115
:10333000002666B12889082868D3284600F03EF99F
:1033400058B104B02846BDE8F04701F0A7B904B071
:103350002846BDE8F04701F0A1B92221284601F036
:10336000C6F9D8B13946284601F0C1F9E0B9298932
:103370000022022001F055F80646AEB1294630463B
:1033800001F00BF980B974684946304601F0AFF995
:1033900050B9284601F082F935460BE06FF0210163
:1033A000284601F0A4F928B104B02846BDE8F0474A
:1033B00001F074B96868E16803912269E2602161F3
:1033C000002606704680208901F029F8C0B240F43A
:1033D0007F40FFF776FF208166813946284601F05D
:1033E00086F940B90120CDE90108FF23002204F14C
:1033F0000C0101E00AE003E00096284600F0B8FA6C
:1034000004B02846BDE8F04701F048B904B02846AA
:10341000BDE8F04701F042B92DE9FC4780460E4671
:10342000914600222421012000F0FBFF05462800E0
:1034300024D0D8F804706C68267084F801900026B7
:10344000A680E6806868D8F8041008301C22FCF7D3
:10345000B7FE66806989204600F0AAF860800120E6
:10346000CDE90060FF2307F10C020021284600F09F
:1034700065FA2846BDE8FC4701F010B9BDE8FC87B5
:103480000A460B21FFF7C8BF08B5694600F006F8E9
:1034900008B1009808BD4FF0FF3008BDFFB50346E6
:1034A0000F466D461A78A2F130000A2802D3002098
:1034B00004B0F0BD00200A24302A06D113F8012FF1
:1034C000782A0BD0582A09D00824A2F13006092EF8
:1034D00008D800FB046013F8012FF6E7102413F856
:1034E000012FF2E7102C13D1A2F16106052E03D9AA
:1034F000A2F1410105290BD8192E01D8612100E064
:103500004121511A0A3141EA001013F8012FDCE77A
:103510002E2A0ED0B2B1202A14D00C2A12D00A2A98
:1035200010D00D2A0ED0092A0CD00B2A0AD0002068
:10353000BEE703A98D4201D30020B9E701C513F806
:10354000012FB0E76946691A012202EBA1010529A2
:1035500028D2DFE801F00327050E1A000020A7E7B4
:10356000B0F1807F01D30020A2E7009940EA01601A
:1035700018E0B0F5803F01D3002099E70099019A47
:10358000090641EA024108430CE0FF2801D9002066
:103590008EE70099019A090641EA0241029A41EA3E
:1035A0000221084317B1FFF780FE386001207FE752
:1035B00010B500F0EBFCC04380B210BD70B50546FD
:1035C0000024002613E06989686800F0DFFC2044CD
:1035D00081B201EB1044A87AC00707D0C6F1010000
:1035E000C6B2E0B2C4F3072141EA00242D68002DE1
:1035F000E9D126B1E0B2C4F3072141EA0024E04357
:1036000080B270BD0068421C07D0020005D091F85E
:103610003120920703D400207047012070474A6888
:10362000824201D100207047896800EA01030A4004
:10363000934202D10143491C01D000207047012070
:10364000704700002DE9F74F84B00598068D4FF0C4
:10365000140A02220021104600F0E3FE81465FEAD0
:10366000090023D0A9F80A60A9F80860434820F0AF
:103670000305C9F804500498142241682846FCF751
:103680009FFDE88800F0CBFEC0F30C0700F400506B
:10369000019004980089143884B2143EF01706EBA8
:1036A0005070C0F3CF00CDE902065AE04FF0FF3072
:1036B00007B0BDE8F08F0398844202DC4FF0010BA5
:1036C00001E04FF0000B0198C7F30C060643BBF175
:1036D000000F01D146F4005601D0204602E00298C6
:1036E0004FEAC0001FFA80F85346424605F1140124
:1036F000049800F09DFF50441FFA80FA3046FFF70F
:10370000E0FDE88008F1140080B2FFF7DAFD688080
:103710000020688114212846FFF74AFF6881BBF129
:10372000000F05D004F1140081B2484601F013F8EF
:1037300000221146022000F074FE0646C6B149463A
:10374000304600F017FF05983146069A43699847BE
:10375000304600F0A3FFA4EB080084B2029838447E
:1037600087B2002CA7D1484600F098FF00209FE7C1
:10377000484600F093FF4FF0FF3099E777BA0020FA
:103780002DE9F84F06460F464FF001097568288865
:1037900000F045FE0421B1EB103F05D0304600F0AB
:1037A0007DFF0020BDE8F88F288800F038FEC0F3C8
:1037B00003204FF6FF7101EA800A688800F02FFEAF
:1037C00001467089504502D33089884204D2304680
:1037D00000F064FF0020E5E7304600F0BCFF4FF04A
:1037E00001083C4605F11000DFF848B10090204682
:1037F00000F09EFD58B1201D09D0606838B12969DC
:10380000814212D021460098FFF7FCFE68B9B8F15A
:10381000000F04D04FF00008DBF8004000E02468FF
:10382000BC4200D12468002CE1D17CB9288900F089
:10383000F6FDC0B2112809D105EB0A00408800F05E
:10384000EEFD442802D13C464FF000094FF070488D
:103850004FF0604AB9F1000F17D0E868A8B13946B7
:1038600005F10C00FFF7CEFE50B9404600F0D5FD43
:10387000E96800EA0109504600F0CFFD814504D116
:10388000304600F00BFF00208CE7ACB143F6FF7030
:10389000FFF717FDE988084205D0304600F0D4F85C
:1038A000064676B17568244C6760A5603946304697
:1038B00000F0A8FF38B139E0304600F0EFFE0020FC
:1038C00070E700206EE7288900F0A9FDC0B201284A
:1038D00014D006280DD0112806D0394605F1100065
:1038E000FFF790FE78B11EE03946304603F0C0F88D
:1038F0001CE03946304601F037FC17E039463046C7
:10390000FFF7E8FC12E0404600F087FD296900EA75
:103910000107504600F081FD874204D07560022106
:103920003046FFF7D3FC304600F0B8FE0020606060
:10393000A06037E7A40000201C0100202DE9FE4311
:103940000746DDE90A45884616469946304600F0A6
:1039500063FA50B102904B4632464146CDE90045EC
:10396000384600F005F8BDE8FE836FF00300FAE783
:103970002DE9F05F0646DDE90A890C9D8A46174667
:103980009B46002F48D01421304600F0B0FE18B1FD
:103990006FF00100BDE8F09F7468208900F03FFDE2
:1039A0006BF31F20FFF78DFC208100F038FD20F025
:1039B000FF0040EA0900FFF784FC2081386820619D
:1039C0001FFA88F040F48A40FFF77BFC20803089A2
:1039D000FFF777FC60804FF00009A4F80690DFF84D
:1039E0006480B8F80000FFF76CFCA080B8F8000015
:1039F000401CA8F80000BAF1000F06D0DAF8000069
:103A000018B1E060A4F80A9008E0281D02D06868A8
:103A1000E060F7E70020FBE777681037288D48B1B2
:103A20003189814206D93A4629463046BDE8F05FE1
:103A3000FFF708BE3A46314628466B69BDE8F05F9D
:103A4000184700001C0100202DE9F05F8346002785
:103A5000DBF80450288800F0E2FCC0F303200528BE
:103A60007ED1E88800F0DBFCC0044FEA104968888A
:103A700000F0D5FC0446288800F0D1FCC0F30320F8
:103A8000404204EB80001FFA80FA584600F07CFDAB
:103A90000646DFF82C81B8F8000030440A280AD91D
:103AA0003146284600F07EF9002859D0B8F80000C9
:103AB00030440A287FD8D8F804400DE06069E968EE
:103AC000884207D1A0692969884203D1A089A988C1
:103AD000884203D027462468002CEFD12CB1E88817
:103AE00000F09DFCC00408D012E03146284600F0EA
:103AF000F7F8044620005ED00AE0E08900F08FFC71
:103B0000C00405D01422294604F10800FCF758FB34
:103B1000B8F800003044A8F80000E88800F07FFC06
:103B2000800406D4A07F40F00100A07709EB0A00D2
:103B3000A0835946204600F045F8C8B3A08B143046
:103B4000A083606846683568142204F10801304695
:103B5000FCF736FBA08BFFF7B4FB7080002000E081
:103B600029E0F080708114213046FFF721FD70813B
:103B7000D4F804906FF0130A09E06E6851462846A5
:103B800000F0B5FD2946484600F0E0FC3568002D00
:103B9000F3D13946204600F091F8484600F0F4FC95
:103BA000B8F80010081AA8F800004846BDE8F09FD1
:103BB000FFE70020FAE7584600F070FD0020F5E727
:103BC000280100202DE9F04707460E460024012574
:103BD000D6F80480B8F8020000F021FC8146B8F85D
:103BE000000000F01CFCC0F30320404209EB8009F8
:103BF000B8F8060000F013FCC004010C7368002044
:103C00001860998001EB09001FFA80F8A3F806807C
:103C10007A681CE05068B0F804C061450CD21A60A4
:103C200044B1B4F806C0614539D38088804536D8A0
:103C300026600EE07E600CE031D0C28891422ED327
:103C40001CB1E288624500D0002502680446002AC3
:103C5000E0D142B934B12660E0889988884202D028
:103C6000002500E07E60B87FC00716D095B1786867
:103C70004068808808B100250CE0196808E04868B1
:103C8000D9888288914201D0002503E0034601686B
:103C90000029F4D12846BDE8F0870020FBE7304634
:103CA00000F072FC014604480288511A0180304637
:103CB00000F0F4FC0020EEE72801002030B40B46B1
:103CC000064902684C68844201D14A6000E01A60EB
:103CD000014630BC052000F0BDBA000028010020DC
:103CE00070B506460D46052000F0ECFA044654B9BE
:103CF0002946304600F056F8A84203DB052000F0C4
:103D0000E1FA04468CB120212046FCF772FA032028
:103D1000E07707484168216044601422314604F18D
:103D20000800FCF74DFA204670BD002070BD000071
:103D3000280100202DE9F0410646884600257468D8
:103D400060688188002912D100687060142206F131
:103D500008016068FCF734FA01212046FFF790FB68
:103D6000204600F011FC0546204600F097FC7468E0
:103D700009E0606827460468384600F005FC054401
:103D8000384600F08BFC002CF3D141463046FFF75B
:103D900095FF03490888401B08802846BDE8F0814C
:103DA000280100202DE9F04105460F460026DFF8E6
:103DB0006480002000230024D8F804101AE04A6927
:103DC000D5F80CC0624509D18A69D5F810C06245A2
:103DD00004D18A89B5F804C0624507D0641CB8B123
:103DE000CA7F90F81FC0624500D808460A6802B131
:103DF0000B4611460029E2D118B11946FFF79AFF88
:103E00000644BE4201DA012CD3DC3046BDE8F08125
:103E10000846EBE72801002070B505460E48046807
:103E20000DE0204600F084FA40B1A068296862687D
:103E300001400240914201D1204670BD2468002C0F
:103E4000EFD1064C206820B100F072FA08B120686A
:103E500070BD002070BD0000A4000020A80000205C
:103E600070B50446062004F82A0F02206070002076
:103E7000A070E07020716071A0712A3C04F12B01E8
:103E8000FCF7B6FE40F2DC502085322084F8310089
:103E900005220C490C48FCF761FC05220B490C4833
:103EA000FCF71EFC0024084D4FF4400605EB4410BF
:103EB0003146FCF777FC641C052CF7DBBDE870404D
:103EC000FCF794BF8C20002028020020C8020020AC
:103ED00088010020F0B587B0002501A8FCF740FD5F
:103EE00001A804AB07C807C3049881B2059F032249
:103EF000104600F096FA064630000BD0344607E034
:103F0000628979196068FCF75BF960890544246867
:103F1000002CF5D10F4A10688168012901D9006889
:103F200000E0069800214FF0004302E00360C06803
:103F3000491C1468A4688C42F8D81068002181607C
:103F400005484269120602D580224261816007B0AD
:103F50003046F0BD640000200090024070B50C4671
:103F6000002509480068866807E062897019616861
:103F7000FCF726F9608905442468002CF5D1A8B225
:103F8000FCF7A8FE002070BD5C00002030B40022C9
:103F900007E003781B024478801C1C432244891EDE
:103FA00089B20129F5D811B100780002024490B21B
:103FB00000EB1240010C02D081B201EB104030BC8A
:103FC00080B2FFF77EB900001FB56846FDF7DCFD43
:103FD00001986421B0FBF1F0401EB0F1807F09D25E
:103FE0004FF0E0214861174AF020107000208861EE
:103FF0000720086101214020FDF79CFD0120FDF70D
:104000001FFE4FF0804002F0C7FCFDF731FCFDF7CA
:10401000A7FAFDF70DFB0CA0FDF72CFB0EA0FDF79A
:104020000FFBFCF7DDFAFDF78FFBFCF7C1FA0F4C35
:10403000FCF712FB08B1FDF713FC2068FDF7EAFB63
:10404000F6E7000023ED00E02045746865726E65B8
:10405000742074657374000020202020206C6F632E
:10406000616C74696D653A2000000000000000205A
:1040700000280FD008494A6890420BD38A689042C2
:1040800008D2083800220271CA68904200D2C86083
:1040900000F08EBB704700009000002010B50A4869
:1040A0000A4A20F0030050604FF42053038000219F
:1040B0004180017100F52051916001240C710B8049
:1040C0004B801470D06010BDBF44002090000020D1
:1040D0002DE9F04100280ED0C01C4FF6FC7100EA1B
:1040E00001020C2A00D20C224FF42057BA4204D904
:1040F0000020BDE8F0810020FBE7224DEE686B68F0
:10410000F01A81B2C2F5205C38E0581804799CBBE3
:104110000488641A083C94422FD3048802F11408DE
:10412000641A083C4FF0010C444515D30A44083288
:1041300094B21A194FF0000882F80480B0F8008099
:10414000A2F800805180048080F804C01188B94230
:1041500004D09A1C8C5201E080F804C0B04209D10E
:10416000AA6802E009881944E960E9680C790CB191
:104170009142F7D10830BCE7FFE7595A8C45C4DCBF
:104180000020B6E7900000202DE9F04FC91C4FF643
:10419000FC7211400C2900D20C214FF4205C6145C7
:1041A00002D90020BDE8F08FDFF8A490D9F80440D0
:1041B000A042F7D3D9F808209042F3D2A0F1080228
:1041C000131B9BB21588EE1A083E1FFA86FA51455A
:1041D00002D94FF00000E5E7E4D025441C4E95F8E5
:1041E00004B04FF00008F7687668BBF1000F06F1E5
:1041F000020616D001F114055545D3D819440831EB
:104200008DB26119B94201D2C9F80C1081F804804D
:1042100014880C804B80158009886145C2D08D536D
:10422000C0E7B5F800A01944083189B2AF4202D105
:104230006518C9F80C500C4484F80480A4F800A058
:104240006380118022886245ACD09153AAE70000B8
:1042500090000020002905D0034A52F820300B605E
:1042600042F8201070470000D06C0020F0B500200C
:10427000401C80B20928FBD3104820F00301002025
:104280000E4B0F4D0026273B05F1120443F820602A
:10429000002209E053F820700F6043F8201035F831
:1042A00010703944521C92B234F810709742F1D811
:1042B000401C80B20928E9D3F0BD0000F76C002053
:1042C000249200080146092901D300207047044ABE
:1042D00052F821000028F9D0036842F821307047D5
:1042E000D06C00202DE9F04106AD0446E0CD002061
:1042F0006060A060E06084F8310020626062E56187
:104300000A4D287884F83400401C28702761204624
:1043100000F013F82046B04710B10020BDE8F0814E
:10432000686820606C602046F8E70000A00000206C
:1043300090F8310000F00100704770B50646144651
:104340001D46304600F020F82146304600F050F877
:1043500029463046BDE8704000F00FB8014988603A
:1043600070470000A000002090F83110CA0703D069
:1043700021F0010180F831107047002902D009684E
:10438000C16070470021FBE770B505460C466968BF
:10439000206888421ED0144800680AE001686A68F4
:1043A000914205D1C668012100F084FB304600E04F
:1043B000C0680028F2D10D48006809E007D0016804
:1043C00029B16A68914202D144B121680160C06894
:1043D0000028F3D12CB12068686070BD4FF0000157
:1043E000F4E74FF00000F7E7C4000020C000002011
:1043F000002902D00968816070470021FBE790F82E
:104400003110CA0708D141F0010180F83110890646
:1044100002D5011DFEF7CEBD7047FEF746BFFEF781
:1044200050BF2DE9F0470D4617460026002808D05A
:10443000012807D0022807D0032807D00020BDE8B4
:10444000F08714261436B6B20E36B6B24FF0010914
:104450004FF00008EFB3012F64D0022F62D0032F7A
:1044600001D00020EBE70820FFF72CFF04462000D6
:1044700019D02773C4F80080A019133020F003006E
:1044800060602581F61C26F00300C0F5FA70A84292
:1044900000DD284680B26081A4F80E9026462D1AD1
:1044A0004FF4FA7A1AE00020C9E70820FFF70AFF64
:1044B000B8B1077380F80D80C0F800803060A9B2F1
:1044C0000181514500D35146418100F11002426003
:1044D00000E00BE0A0F80E906D1A0646002DE4DC1B
:1044E0002CE0204600F0DAF80020A8E706F11300DF
:1044F00020F00301E81C20F00300084480B2FFF71D
:10450000E7FD044620000BD0A019133020F0030073
:10451000606025816581C4F8008084F80C800DE01E
:1045200000208CE70720FFF7CDFE044664B1C4F8F5
:10453000048025816581C4F800802773A4F80E905B
:1045400084F80D8020467AE7002078E710B500282F
:104550000FD000290DD004E003890C892344038186
:1045600010460268002AF7D102890B891A44028199
:10457000016010BD10B50C462146FFF7E7FF20464D
:10458000BDE8104000F00EB9002102E0491CC9B29C
:1045900000680028FAD1084670472DE9F047054623
:1045A0000C4600260027002D04D01CB12889218943
:1045B000884203D26FF00900BDE8F0876FF0080968
:1045C00068896189801BC91B884202DB1FFA81F858
:1045D00001E01FFA80F860684246C11968683044FB
:1045E000FBF7EEFD06EB080086B207EB080087B28A
:1045F0006889B04201D100262D686089B84201D88F
:10460000002724683CB160892189884203D1206851
:1046100008B14846D0E73DB168892989884203D16D
:10462000286808B14846C7E7002CC9D10020C3E775
:104630002DE9F047894616464FF00008002805D0BE
:10464000B9F1000F05D00027044622E00020BDE8A4
:10465000F0870020FBE72BB16089984202D8181A36
:1046600083B215E06089C01A85B2B54200D93546DB
:1046700060682A46C11809EB0700FBF7A1FD08EBAB
:1046800005001FFA80F8781987B2701B86B20023E4
:1046900024680EB1002CDED14046D8E770B5002862
:1046A00001D0002407E0002070BDC189491E89B2F5
:1046B000C18121B100200028F7D1204670BD0568D6
:1046C000017B032909D001290CD002290AD0FFF768
:1046D000CFFC641CE4B22846EDE701460820FFF752
:1046E000B9FDF6E701460720FFF7B4FDF1E710B585
:1046F000002908D038B108DA4A4293B242899A4276
:1047000004D2012010BD002010BD8BB2027B446892
:104710003AB1032A05D0022A0CD0012A0AD001207E
:1047200010BD621A426000F110039A4209D244603F
:10473000012010BD00290CDA42899A4209D3621A7D
:10474000426042890A444281028911440181002069
:1047500010BD012010BD70B502898A4221D98A1A84
:104760000D46044605E0281A85B2208910442081B0
:1047700024686089A842F6D3207B50B96089A8429A
:1047800007D0A088001B284481B22046FFF7FCFC1C
:10479000044665812581206808B1FFF77FFF00206E
:1047A000206070BD002802D0C189491CC1817047BA
:1047B00030B5134C018862681144931C88420DD0B7
:1047C0000D795DB9A568A94208D0E5688D4200D190
:1047D000E0600D8805800988851ACD524188114412
:1047E00081420BD00D79002D08D1E568854200D1BA
:1047F000E16004880C800088891AC15230BD000035
:10480000900000202DE9F05F81460027D9F8048050
:10481000B8F80800FFF703FE00F0FF0A0025DFF8F4
:1048200048B0DBF8004018E0207C504513D16669A1
:104830008EB108F10C034A462146A069B04750B139
:104840004FF00009012735B1E068E860DBF80000AF
:10485000E060CBF800402546E4680FB9002CE3D1B6
:104860003846BDE8F09F0000AC00002070B504465B
:104870000D46FCF76FFEC08800EB800080B2FCF7AD
:10488000F1FCFCF767FEC0884FF6FF7100EB4000BB
:1048900001EA4000FCF7E6FCFCF75CFEC088C0EBD8
:1048A000C00080B2FCF7DEFC0D484461856100F079
:1048B000D1FE0C4C20610C4901F042FDFCF74AFE90
:1048C000C0880AA100EB800080B2FCF7ADFD04F1C6
:1048D00014012069BDE870400B4B502200F0F2B982
:1048E0006C010020080000200D4900082020436FC3
:1048F0006E6E656374696E6720746F20736572767F
:1049000065722E2E2E000000C1210008F0B587B080
:1049100014461F46FCF71EFEC08800EB800080B2E4
:10492000FCF7A0FCFCF716FEC0884FF6FF7600EB04
:10493000400006EA4000FCF795FCFCF70BFEC0883F
:10494000C0EBC00080B2FCF78DFCFCF703FEC08812
:1049500038A100EB800080B2FCF766FD3A4D04B14F
:104960009FB1FCF7F7FDC08838A100EB400006EAD4
:104970004000FCF759FD2046FFF790FE2869FDF73F
:104980007FFC6FF0040007B0F0BD2189286901F0B9
:10499000EDFC676831A13846FBF736FC002835D0BE
:1049A000002005902FA13846FBF72EFC001D069035
:1049B000069808B3FCF7CEFDC0882CA100EB4000A0
:1049C00006EA4000FCF730FD01222BA10698FBF718
:1049D00058FC10B96888401C68806A8827A168461E
:1049E000FDF7FEF9FCF7B6FDC0886946C0EBC000D4
:1049F00080B2FCF719FD15E0FCF7ACFDC08822A1E0
:104A0000C0EBC00080B2FCF70FFD0BE00120059069
:104A1000FCF7A0FDC08823A100EB400006EA40009F
:104A2000FCF702FD2046FFF739FE2869FDF728FC58
:104A30000020A8E7202044617461207265636965E5
:104A40007665642E00000000080000202020486FDA
:104A5000737420636C6F7365642E000032303020F5
:104A60004F4B00000D0A0D0A0000000020204854A2
:104A70005450204F4B000000300000002020436FB6
:104A8000756E743A2575000020204661696C656476
:104A900020746F206C6F616420636F6E74656E7438
:104AA0002E000000202048545450204552524F52AE
:104AB000000000002DE9FF5F04468846207C0A289C
:104AC00032D0D4F85890D4F824A0BCB32068029017
:104AD000201D36D060680390278B268CD4F8905028
:104AE000D4F814B02146184800F0B6FFA06F08B102
:104AF00001F024FD606F08B101F020FD2146022085
:104B0000FFF7A8FB1DB16FF004015846A847B8F1A4
:104B1000000F07D0CDE9007603AB02AA5146484604
:104B200001F0ADFCBDE8FF9F07482146001D00F0E5
:104B300093FF21460220FFF78DFBF3E7FFE70020FC
:104B4000C5E70020C7E70000C400002070B5054697
:104B50000220FFF7B7FB044620000ED100F0EAFC6C
:104B60000220FFF7AFFB0446200006D1284600F0E4
:104B7000BFFC0220FFF7A6FB04468CB3A021204611
:104B8000FBF737FB4020183404F8070C40F6683078
:104B9000A4F856000023A4F858302082608204F85C
:104BA0000E3CFF2004F80D0C4FF406702084062004
:104BB0002086A385E085C01FE0830120608700F088
:104BC0007BFDE06420646063206506488068A06126
:104BD00023770548E0660548E06784F88530183C8F
:104BE000204670BDB00000204763000800DD6D0066
:104BF0004161704770B504460526207C082856D2CE
:104C0000DFE800F004212D394255554B00252C4991
:104C1000C868A04202D1C068C8600CE0C86107E063
:104C2000C068A04203D1C969E068C86003E0C861F8
:104C3000C8690028F4D10020E06021460220FFF777
:104C400009FB002435E000251D482146103000F006
:104C500003FF21460320FFF7FDFA002429E0002589
:104C600017482146143000F0F7FE21460220FFF7D6
:104C7000F1FA00241DE00121204601F06CFC0546FC
:104C8000280016D1267414E00121204601F063FCAF
:104C9000054628000DD126740BE00121204601F0C5
:104CA0005AFC0546280004D10920207401E00025A3
:104CB00000241CB115B9204600F006FD284670BD41
:104CC000B00000202DE9FC4104460F461E46207C22
:104CD000002803D06FF00C00BDE8FC812FB13868CC
:104CE00060602284208B18B105E06FF00800F3E7C4
:104CF00000F0B4FC208300F0DFFC002544F8245FC2
:104D00006063401EA062606440F66830A080E0806E
:104D1000A56020874FF40670A082394600F038F86D
:104D2000A0820122E28500EB80004FF6FF7101EACC
:104D300040002086022004F8140C6666243C1349C7
:104D4000C868A04202D1C068C8600CE0C86107E032
:104D5000C068A04203D1CB69E068D86003E0C861B5
:104D6000C8690028F4D14869E0604C61CDE900527F
:104D7000002202231146204600F01AF8054615B914
:104D8000204600F0A1FC2846A6E70000B000002065
:104D900010B504460846FFF73FF838B1008D28B13A
:104DA000283880B2844200D220460446204610BDF6
:104DB0002DE9FF4F83B005461199059808430699E0
:104DC00050EA81706FF0090102D0059820B107E028
:104DD000084607B0BDE8F08F049808B10846F8E728
:104DE000B5F86E100598814207D215F8220F40F0F1
:104DF000800028704FF0FF30EBE7059E049800908C
:104E00001198C00701D0042000E000201199890703
:104E100001D50C2100E0002100EB010AA86E0190F1
:104E2000B5F87080B8F1040F04D20024274602942C
:104E3000A146B2E015F8220F40F0800028704FF034
:104E4000FF30C6E7288FA0EB0A00B04200DB3046F7
:104E50001FFA80F90420FFF735FA044620005BD0E2
:104E60004FF0000BC4F800B0C4F804B00FB30298C0
:104E7000046002941098C0071DD009EB0A0081B2AB
:104E800000221046FFF7CDFA60600028E7D0FFF758
:104E90007BFB40441FFA80F8049830B160684A46B2
:104EA000009940685044FBF78BF960684068A06047
:104EB00021E02746DDE7002251461046FFF7B1FA10
:104EC0006060002828D0FFF75FFB40441FFA80F89D
:104ED0008EB1012249460320FFF7A3FA010016D044
:104EE00008F101081FFA88F8009848600098A0604F
:104EF0006068FFF72BFBB8F1040F0DD8A4F80C90F5
:104F000014216068FFF7F3FB002805D105E0606815
:104F1000FFF7C4FB0020606083E0606840682061A8
:104F2000288BFEF7CEF921690880288CFEF7C9F995
:104F3000216948800198FEF7B8F921694860206925
:104F4000A0F812B04FF6C070FEF7BBF9216989894D
:104F500000EA010B0698FEF7B4F94BEA000B206952
:104F6000A0F80CB01198A07320698089FFF757FA58
:104F7000052100F03F0001EB9A0140EA013080B2C8
:104F8000FEF79FF921698881A6EB090086B2019896
:104F900048440190009848440090002F3FF452AFDD
:104FA000002E7FF44FAF6E6F16B9002603E0064661
:104FB00030680028FBD1EEB330698089FFF72FFA03
:104FC000800700D00120B189C84266D0306980894D
:104FD000FFF725FA800760D10698800702D006986F
:104FE00001285AD1B089B9890844298F884254D8F8
:104FF000B07BB97B884250D130694068FFF70DFA29
:10500000B18900EB010B38694068FFF706FA834568
:1050100043D10AF1140ACAF100017868FFF767FB6F
:1050200070B195F8220040F0800085F8220027B189
:10503000384600E031E001F081FA4FF0FF30C8E679
:105040007868418949B90168796000210160A8F157
:1050500001081FFA88F8FFF721FB0698C00708D05F
:105060000120FEF72EF901463069828911438181C2
:1050700009E079687068FFF769FAB089B98908446E
:10508000B08138683060BC4202D1B6F80C9034462A
:1050900039460420FFF7DEF801E09EB3376006983A
:1050A000069900F0020001F00101084303D00598C1
:1050B000401C80B205900698C00705D095F82200E4
:1050C00040F0200085F8220055F8681F0598084434
:1050D0002860E9880598081AE880A5F808807CB15E
:1050E000B9F1000F0CD0206950B11098800707D497
:1050F0000820FEF7E6F80146206982891143818184
:10510000002066E6FFE76F67C9E7000070B5154845
:10511000446923E0E26F7AB1D4F8845025B10023CA
:1051200021466069A84704E000232146184601F0A3
:105130000AF908B90020E06794F82200C1070CD0F2
:1051400040F0020084F82200204600F0BDFA94F8F6
:10515000220020F0030084F82200E468002CD9D15A
:1051600070BD0000B00000202DE9FC4105460C4652
:10517000C84E6868B0600088FFF751F96968C0F3ED
:10518000032001EB80007060B0680088FFF747F9EA
:10519000C0F30320800041422846FFF7A8FA10B967
:1051A0002889142804D22846BDE8FC41FFF776BAC6
:1051B000B06821461030FEF725FA68B94FF070400C
:1051C000FFF72BF9B168096900EA01044FF060406C
:1051D000FFF723F9844204D12846BDE8FC41FFF7DC
:1051E0005DBA70688089FFF71AF9000B80004142B0
:1051F0002846FFF77CFA20B12846BDE8FC41FFF7BE
:105200004DBA70680088FFF70AF90146706801809E
:105210004088FFF704F90146706841804068FFF755
:10522000FCF8014670684160F1608068FFF7F5F8AE
:105230000146706881603161C089FFF7F0F801466E
:105240007068C1818089FFF7EAF800F03F00307094
:105250002989800701D0012000E0002008447080E7
:1052600000218D4B1A6814461BE07068278CB0F83B
:1052700000C0674513D1278B408887420FD1B068A3
:105280006768D0F80CC0674509D127680069874274
:1052900005D141B1E068C860E2601C6003E02146CE
:1052A000E468002CE1D1ECBB7C4804681AE070682B
:1052B000218C0288914214D1218B4088814210D1E7
:1052C000B0686168C26891420BD12168006981426F
:1052D00007D1204601F094FA2846BDE8FC41FFF7CB
:1052E000DDB9E468002CE2D100226D4F3868034636
:1052F0001FE007D0016829B1D6F808C0DCF810C05B
:10530000614514D1D6F804C0018BBCF802C06145D8
:105310000DD11AB1C168D160C360386000F024F9C2
:10532000284600E007E0BDE8FC41FFF7B7B90246B8
:10533000C0680028DDD1002C7AD05A4F4FF0000809
:10534000C7F800802889B8816868B8607D60706897
:105350003861C6F8148086F80180E26FB2B1D4F8E3
:1053600084C0BCF1000F04D0002321466069E047EF
:1053700004E000232146184600F0E5FF20B128464E
:10538000BDE8FC41FFF78AB9C4F87C80B4612046CF
:1053900000F092FB401D57D0707801070FD5D4F86C
:1053A00090201AB16FF005016069904721463A4894
:1053B00000F052FB21460220FEF74CFF44E0C006FD
:1053C00008D52146344800F047FB21460220FEF76D
:1053D00041FF39E0B4F86C202AB1D4F8803013B121
:1053E0002146606998477269B2B13078000703D5E9
:1053F000507B40F001005073D4F8845025B1002355
:1054000021466069A84704E000232146184600F0C1
:105410009AFF08B17069E067707880060FD5D4F8FC
:10542000845035B100231A4621466069A84706E03A
:1054300015E000231A462146184600F084FFC6F8FE
:105440001880204600F040F9C6F8188078680028D7
:1054500003D0FFF723F9C7F80480BDE8FC8170682A
:105460008089FEF7DCFF40070ED470680188408811
:10547000CDE90001B3687188F0681A4601440C3325
:105480001032306900F0FBFF2846BDE8FC41FFF711
:1054900005B90000FC000020C4000020C800002066
:1054A000C000002060BA00207CB504460022142110
:1054B0000120FEF7B6FF0546002D18D0A06D401E56
:1054C000FDF7F3FE034600222946204600F02AFAA3
:1054D00006200021CDE90010E37A221D214628464E
:1054E000FEF72CFA2846BDE87C40FFF7D7B87CBD14
:1054F000F0B406467F25002400200D494A698F68D4
:105500000CE0517CB14208D8A94206D8136BFB1AB3
:10551000A34202D31C4610460D46D268002AF0D1A1
:10552000002803D0F0BC0121FFF7C4BAF0BC7047DB
:10553000B000002030B4002300200A498A698C683A
:1055400006E0116B611A994201D30B461046D268EE
:10555000002AF6D1002803D030BC0121FFF7AABAF7
:1055600030BC7047B00000207CB50546374E30781F
:10557000C10610D5706801884088CDE900017188A6
:10558000F068B36801441A4630690C331032401C8D
:1055900000F075FF57E0800755D5687CFFF7D6FA15
:1055A0000446200043D0B06810F1100F42D00169CA
:1055B0002160298B218310F10C0F3DD0C068606001
:1055C00071680888208403202074F0680246401C1B
:1055D0006062E062C889A4F85C00A4F85400521E1E
:1055E000226668696061E869E061288940F2991182
:1055F0000840208116480168E1600460204600F000
:10560000CFF9208F211DFFF7C3FB20870021012048
:10561000CDE9001012230A462046FFF7C9FB0546D4
:1056200065B100212046FFF745FA28467CBD4FF0C2
:10563000FF307CBD0021BBE70020C0E72046BDE86D
:105640007C4000F041B800207CBD0000FC00002040
:10565000C40000204020FFF779BA000030B5154B98
:105660004FF400445A695888401C80B25880A042C8
:1056700002D34FF4805058801046598803E0058BC0
:105680008D42F0D0C0680028F9D1986903E0058BFD
:105690008D42E8D0C0680028F9D106481030006873
:1056A00003E0058B8D42DED0C0680028F9D1588810
:1056B00030BD0000B00000200249D1E901021044D1
:1056C00048607047B00000202DE9F0470546674864
:1056D0000068A84202D10020BDE8F087B5F85C0060
:1056E000B5F85280404500D280466C6F95F8220094
:1056F00080070FD54CB120694068FEF78EFEE96C3B
:10570000401AA1890844404504D92846BDE8F0471D
:1057100000F02BBFAF6F0FB903E0074638680028D1
:10572000FBD14FF0000978E020698089FEF777FE11
:10573000A86F78B195F8221011F0440F0AD1686F64
:1057400028B1026832B980892A8F904202D211F0C2
:10575000A00F6ED020686867287C02280DD010202A
:10576000FDF7AFFD0146206982891143818195F8DB
:10577000220020F0030085F822002946204600F090
:1057800077F820694068FEF748FE06462069808960
:10579000FEF745FE800700D00120A189304408446F
:1057A000A96D091A00D5A86520698089FEF737FE22
:1057B000800700D00120A189C8422AD0C4F80090F7
:1057C000A86F68B120694068FEF727FE0646386971
:1057D0004068FEF722FE301A18D505F1780603E07E
:1057E000AC67274618E03668306858B100694068F1
:1057F000FEF713FE824620694068FEF70EFEBAEB04
:105800000000F0D430682060346005E03C6027463A
:1058100002E0204600F082FE6C6F54B120694068BF
:10582000FEF7FBFDE96C401AA189084440457FF66C
:105830007BAF9CB195F89C0080B920694068FEF769
:10584000ECFDE96C401AA1890844B5F85C10884267
:1058500004D9C5F89890012085F89C0015F8220F0E
:1058600020F080002870002036E70000140100209E
:105870007CB505460C46606AFDF717FD296988600E
:10588000608DFDF71EFD2969C881618D606A08443D
:10589000E0622E691436A87BC00703D01F48FDF7CD
:1058A00004FD30600CB1206840B9201DFEF7B4FA49
:1058B000002831D0011D08D040682060B4F93600BE
:1058C0004FF00006401C02D002E00020F5E7E6861B
:1058D000E06B38B912480068E06328694068FEF759
:1058E0009CFD20646968288A8A88801A4A89121A6D
:1058F0004A8169680A89101A0881696828694860BC
:10590000286906820621A07ACDE90001E37A221DEA
:1059100021466868FEF712F87CBD0000B405040259
:10592000B80000202DE9F041054616461F464C6898
:10593000288BFDF7C6FC2080288CFDF7C2FC608018
:105940006760686AFDF7B1FCA0604FF6C070FDF7B4
:10595000B8FCA18900EA01071020FDF7B2FC07435B
:10596000A781688DFDF7ADFCE08100276782A089E3
:10597000FEF755FDF11706EB9171052200F03F008F
:1059800002EBA10140EA013080B2FDF79AFCA08150
:105990002782698D686A0844E8622046BDE8F08184
:1059A00070B505461F4E7468204614348089FEF792
:1059B00036FD0521B1EB103F1DD270688089FEF7DE
:1059C0002EFD6FF0040101EB1030090C01EA800399
:1059D000002140F2B4560CE0625C002A0BD0012A90
:1059E0000AD0022A0BD060184078002803D008445F
:1059F00081B29942F0D370BD491C89B2F9E76218AF
:105A000050780428F7D1091D9942F4D8D0789278BB
:105A100040EA0222B24200D802B932462A8789B24D
:105A2000E7E70000FC00002070B50446207C002859
:105A300011D00A280FD001280DD0E06F002510B139
:105A4000FEF72CFEE567606F00F078FDA06F00F0B8
:105A500075FD6567A56770BD70B502460C46106898
:105A6000A04202D1C06810600DE01249C86107E091
:105A7000C068A04203D1C969E068C86003E0C8619A
:105A8000C8690028F4D10025E5602046FFF7CCFF67
:105A9000207C0A280CD001280AD094F82200C107E3
:105AA00006D040F0020084F822002046FFF70CFEEA
:105AB000257470BDB00000202DE9FC5F0446002075
:105AC0008246DFF8008498F800104A0726D5217C2A
:105AD00002291AD0616AD8F80C20531A05D4238DF4
