:020000040800F2
:10000000D0C700209D010008591D0008FD140008FC
:100010000D1D000839060008BF2800080000000078
:10002000000000000000000000000000352500086E
:10003000D108000800000000F11F0008FD2700089B
:10004000B7010008B7010008B7010008B7010008B0
:10005000B7010008B7010008B7010008B7010008A0
:1000600029120008B7010008B7010008B70100080D
:10007000B7010008B7010008B7010008B701000880
:10008000B7010008B7010008B7010008B701000870
:10009000B7010008B7010008B7010008B701000860
:1000A000B7010008B7010008B7010008B701000850
:1000B000B7010008B7010008B7010008B701000840
:1000C000B7010008B7010008B7010008B701000830
:1000D000B7010008BD280008B7010008B7010008F3
:1000E000F5110008B7010008B7010008B7010008C2
:1000F000B7010008B7010008B7010008B701000800
:10010000B7010008B7010008B7010008B7010008EF
:10011000B7010008B7010008B7010008B7010008DF
:10012000B7010008B7010008B7010008B7010008CF
:10013000B7010008B7010008B7010008B7010008BF
:10014000B7010008B7010008B7010008B7010008AF
:10015000B7010008B7010008B7010008B70100089F
:10016000B7010008B7010008B7010008B70100088F
:10017000B7010008B7010008B7010008B70100087F
:10018000B7010008B7010008DFF80CD000F0B6F99D
:1001900000480047D14B0008D0C7002006488047E0
:1001A00006480047FEE7FEE7FEE7FEE7FEE7FEE75C
:1001B000FEE7FEE7FEE7FEE70D28000889010008DC
:1001C00038B5D0E90221491E01EB410102EBC10122
:1001D0004268C1EB011102EB81010268C1EB011120
:1001E00002EB8102D0E9043101EB410103EB810113
:1001F0003023A1F5527191FBF3F4174D6C4302EBE0
:10020000C41291FBF3F403FB141100921A2902DBD0
:10021000124B1A4400920C2291FBF2F3104C6343F0
:10022000009C04EBC313009391FBF2F302FB131148
:100230000C4A08E0491E40F2A324535C6343009C2F
:1002400004EBC31300930029F4DC0146684600F078
:10025000D7F8009838BD00003F0C0F008051010016
:1002600067C20300A09F000840EA01039B0703D078
:1002700009E008C9121F08C0042AFAD203E011F8E5
:10028000013B00F8013B521EF9D27047D2B201E0A7
:1002900000F8012B491EFBD270470022F6E710B58B
:1002A00013460A4604461946FFF7F0FF204610BDE4
:1002B00030B505462A460B4612F8010B13F8014BE0
:1002C00008B1A042F8D01CB1002802D06D1CF1E7A3
:1002D000284630BD421C10F8011B0029FBD1801AB2
:1002E000704710B5002200E0521C835C8C5CA34276
:1002F00001D1002BF8D1D8B2E1B2401A10BD30B50F
:1003000004460020034600E05B1C934203D2E05CFD
:10031000CD5C401BF8D030BD034611F8012B00F82E
:10032000012B002AF9D11846704730B50546002048
:10033000034600E05B1C934205D2EC5CC85C201ACB
:1003400001D1002CF6D130BD70B50F4D00B9286831
:10035000002412E00A4602E09E4203D0521C1378A9
:10036000002BF9D1DAB2224305D02BB124B1002100
:1003700000F8011B04E00446401C0678002EE9D179
:100380002860204670BD00007401002030B505468D
:10039000002008E00A4602E0A34207D0521C13786E
:1003A000002BF9D1401C2C5C002CF3D130BD70B572
:1003B000064602F029FB046805460A220021304661
:1003C00000F064F82C6070BD30B50B46014600208B
:1003D0002022012409E021FA02F59D4205D303FA07
:1003E00002F5491B04FA02F52844151EA2F1010288
:1003F000F1DC30BD014900F003B80000A0C10020CD
:1004000010B500683C22B0FBF2F302FB1303B0FB13
:10041000F2F00B60B0FBF2F302FB1303B0FBF2F05F
:1004200018224B60B0FBF2F302FB1303B0FBF2F0B7
:10043000021D8B600723B2FBF3F403FB1422800040
:1004400040F2B55300F66C308A61B0FBF3F2B0FBBA
:10045000F3F403FB1400443280084A61C8613B286E
:1004600002D3920700D0401C0022074C13460A61B9
:10047000E25C824203D8801A5B1C0B61F8E7401CE7
:10048000C860084610BD0000AC9F00082DE9F04789
:1004900091460F4680460446002614F8015B2DB1B4
:1004A00000F03EF80068405DC007F6D12B2D02D069
:1004B0002D2D18D0641E4A463946204600F034F8E7
:1004C00027B13968A14201D1C7F8008071054FF00A
:1004D00002040BD54042002803DD02F095FA0460C7
:1004E000A007BDE8F08746F48066E4E70028F8DA64
:1004F00002F08AFA04606FF00040F2E7064C074D04
:1005000006E0E06840F0010394E8070098471034E3
:10051000AC42F6D3FFF73CFE04A1000824A100087A
:10052000004870473CA000082DE9F05F8246007843
:10053000002715468B460AF10104B946302801D040
:100540009DB113E014F8010B0127782803D0582837
:1005500001D045B10AE00DB1102D07D100271025BB
:1005600014F8010B02E0082500E00A250026B04639
:100570000EE005FB080005FB06F1012701EB104624
:100580001FFA80F8B6F5803F00D3B94614F8010B86
:10059000294600F018F80028EBDABBF1000F05D06F
:1005A0000FB1641E00E05446CBF80040B9F1000FD3
:1005B00006D002F029FA02210160C81EBDE8F09FB2
:1005C00048EA0640FAE73A2800D2303820F0200204
:1005D000412A01D3A2F13700884201D34FF0FF3006
:1005E000704770B58C1810F8015B15F0070301D146
:1005F00010F8013B2A1106D110F8012B03E010F886
:10060000016B01F8016B5B1EF9D12B0705D40023A8
:10061000521E0DD401F8013BFAE710F8013BCB1A4A
:10062000921C03E013F8015B01F8015B521EF9D53F
:10063000A142D8D3002070BDFEE7002904D0016894
:1006400041F0010101607047016821F00101016082
:10065000704700002DE9F04F8FB02B4800F05AF89A
:10066000294800F0EDF80028FAD12748303000F092
:1006700051F82548303000F0E3F80028F9D1002483
:1006800000944FF0C8400190204D029580260396BB
:100690004BF6803704974FF40078CDF81480069419
:1006A0004FF40069CDF81C904FF4005ACDF820A00B
:1006B00009940A944FF0040BCDF82CB003200C9051
:1006C0000D940E946946104800F0C2F8009410484A
:1006D0000190029503960497CDF814800694CDF806
:1006E0001C90CDF820A009940A94CDF82CB00320DA
:1006F0000C900D940E9404486946303000F0A8F830
:100700000FB0BDE8F08F00002864024002000068CE
:10071000007701642DE9F043016821F001010160D7
:100720000021016041608160C1600161212141615E
:100730003E493E4A10394FF03D08904203D1C1F87E
:100740000880BDE8F083394A4FF47465183290424E
:1007500001D18D60F5E7354A4FF47416303290427E
:1007600001D18E60EDE7314A4FF074674832904214
:1007700001D18F60E5E72D4B2D4A6033984201D1BE
:10078000CA60DEE7294C2B4B7834A04201D1CB6004
:10079000D7E7DFF898C0284C0CF1900C604501D1E8
:1007A000CC60CEE7DFF884904FF03D5C09F1A809FA
:1007B000484502D1C1F80CC0C3E72049DFF87C905E
:1007C0000839484502D1C1F80080BAE7DFF86C80EB
:1007D00008F11808404501D10D60B2E7174D3035DA
:1007E000A84201D10E60ACE7144D4835A84201D1B2
:1007F0000F60A6E7114D11496035091FA84201D1CC
:100800000A609EE70D4A7832904201D10B6098E76A
:100810000A4A9032904201D10C6092E7074AA8320E
:1008200090428ED1C1F800C08BE7000010600240FA
:100830003D000020400F002000003D2010640240D9
:10084000014600200968C90700D001207047000058
:1008500030B50368124A1340CC680A682243D1E9D4
:1008600005452C432243CC6922430C6A22434C6A3F
:1008700022438C6A22434C6B22438C6B22431A43E3
:100880000260426922F00703D1E90B2422431A4394
:1008900042610A6942604A6882608968C16030BD0D
:1008A0003F801CF008B502F0DFFD0023024A6946D4
:1008B00002A002F0ABFD08BD513700086463686F09
:1008C0006D652E73797465732E6E6574000000007B
:1008D0007047000010B500F003F900F019FB104854
:1008E0004068C0B94FF4784001F0A4F800F0B0FFC0
:1008F000C0880CA100EB800080B200F013FF00F074
:10090000A7FFC0884FF6FF7100EB400001EA4000EE
:1009100009A100F007FFBDE81040012000F0FABC7B
:100920006000002020202045746865726E65742088
:10093000496E69742020200020202020202066613C
:10094000696C65642020202020200000184A50682F
:1009500003681146002B896808DB0368DB0505D5B1
:1009600048608868401C8860012070470368002B3D
:100970000EDB03689B050BD50368DB0508D4086014
:1009800000204860012088605068C06850600DE019
:100990000368002B0ADB03689B0507D40368DB05AB
:1009A00004D48B685B1C8B60C0685060002070476B
:1009B0009C0000200649002804D0886940F002000D
:1009C00088617047886920F00200886170470000E4
:1009D000009002402DE9F0410023124F78604FF063
:1009E000004C44F2F458561E14E000EB4314C4F8D3
:1009F00000C0C4F80480C3EBC31505EB450501EB4B
:100A00008505A560B34203D204F12005E56000E04E
:100A1000E0605B1C9342E8D30349C8600348B860B8
:100A2000BDE8F0819C00002000900240D43E0020F0
:100A30000649002804D0886940F400508861704756
:100A4000886920F4005088617047000000900240DF
:100A5000F0B500230E4C20604FF48017561E11E0B5
:100A600000EB43142760C3EBC31505EB450501EB11
:100A70008505A560B34203D204F12005E56000E0DE
:100A8000E0605B1C9342EBD302490861F0BD0000BB
:100A90009C0000200090024002680A4302607047F8
:100AA00010B501214C06204601F0B2FA2046BDE8FF
:100AB0001040002101F0ACBA01B581B0019800905E
:100AC00002E00098401E009000980028F9D10CBD6B
:100AD0000248816941F480118161704700900240B1
:100AE0007CB5012140F2E71001F084FA012188036E
:100AF00001F0C6FA4FF48074009403208DF80500CD
:100B000002208DF8040000208DF806008DF8070003
:100B1000454D6946284600F092FC0021A00301F0F3
:100B200031FB002001F008FD86210091694628462E
:100B300000F085FC0B220121284600F0BEFC0B22B0
:100B40000221284600F0B9FC0B220721284600F0BC
:100B5000B4FC0094354C6946204600F070FC0B2232
:100B60000821204600F0A9FC3E200090304C694648
:100B7000204600F064FC0B220121204600F09DFC81
:100B80000B220221204600F098FC0B220321204674
:100B900000F093FC0B220421204600F08EFC0B2277
:100BA0000521204600F089FC4FF4D0400090214CF4
:100BB0006946204600F043FC0B221146204600F017
:100BC0007CFC0B220D21204600F077FC0B220E212D
:100BD000204600F072FCCC200090174C694620465D
:100BE00000F02DFC0B220221204600F066FC0B22B7
:100BF0000321204600F061FC0B220621204600F074
:100C00005CFC0B220721204600F057FC20150090C9
:100C10000A4C6946204600F012FC0B220A212046AD
:100C200000F04BFC7CBD00000000024000040240CC
:100C30000008024000180240001C02400020024050
:100C4000002003490968C90700D00120704700004F
:100C5000009002401EB50021019102910B4B596892
:100C60000A68C2F30D42121F00929A689468012C20
:100C700003D912689268019201E08A680192029198
:100C8000C96859609DE80E000EC01EBD9C00002082
:100C90002DE9F04186B00446884600270597009765
:100CA000824E306920F01C0501A801F0F7F9029886
:100CB0007F49804A0144914202D245F0080516E07E
:100CC0007D497E4A0144914202D245F00C050EE076
:100CD0007B497C4A0144914209D37B4908447B49C2
:100CE000884202D245F0040501E045F01005356167
:100CF0004FF400420021404600F050FAC0B1744861
:100D0000FFF7DAFE206880B3724D0098401C009017
:100D10000121404600F0B0F9400702D40098A842F3
:100D2000F3D30098A84205D1002006B0BDE8F081B9
:100D30000020FAE700974FF480520021404600F06F
:100D40002DFA08B90020F0E70098401C009001211E
:100D5000404600F091F9800602D40098A842F3D3EF
:100D60000098A84202D10020DFE713E0009710218D
:100D7000404600F081F9410703D54FF4006121623C
:100D800000E02762800701D5676114E04FF48040DE
:100D9000606110E0206A0021C0F3CF026069C0F3F7
:100DA0004F000243404600F0F9F900287CD06FF074
:100DB0007F40FFF781FE316847480140D4E90102D6
:100DC0001043E26854F8103F1A431043626810431E
:100DD000A2681043E268104322691043626910431D
:100DE000A2691043E2691043226A1043626A143414
:100DF00010430843306054F8140F61680843D4E985
:100E00000212114308432169084361690843A1693B
:100E10000843E16908437060206AB060606AF0606E
:100E2000B1694FF641700140D4E90B021043238DA4
:100E3000626B42EA03421043A26B1043E26B104321
:100E40000843B061D4E910010843F0612348816987
:100E5000234A1140D4E912231A43D4E914352B4311
:100E60001A43A36D1A43E36D1A43236E1A43636E4C
:100E70001A43A36E1A430A438261D4E91B12114339
:100E8000626F54F8783F1A431143626841EA820165
:100E9000A268114341F400010160016841F0800142
:100EA0000160012041E7FFE700203EE700800240AB
:100EB00000D3CEFEC0E1E40040F1E9FD40787D01C1
:100EC00000796CFC005A6202001F0AFA80F0FA02F4
:100ED000FFFF0F00FFFF04000F8120FF0090024082
:100EE000233FDEF80A794B7942EA0322074B184484
:100EF00002640A78CB7842EA03628B7849781B0453
:100F000043EA01210A434264704700000080024026
:100F100000B5AFB001214FF0606001F06BF8FFF752
:100F2000BFFD00F0D5F8FFF78BFE0128FBD0684627
:100F300000F0E7F801200090002007904FF40071C6
:100F40000A910B900E901190139014901590209090
:100F5000090421910A1123922590269004202890BB
:100F6000299180032A9080012B9040122C90400000
:100F70002E9001216846FFF78BFE024948602FB092
:100F800000BD0000600000200649002804D0086869
:100F900040F0040008607047086820F00400086012
:100FA00070470000008002400649002804D008680D
:100FB00040F0080008607047086820F008000860EA
:100FC0007047000000800240F0B50023284D2968DA
:100FD0000A68002A01DA0020F0BD40F2F456B0425F
:100FE00008D9B0FBF6F2B0FBF6F406FB140414B11A
:100FF000521C00E00122012A2CD10A6842F0405222
:101000000A60C0F30C004860086840F000400860C7
:10101000C868286021E023B92C68276847F080570A
:1010200027604E60541EA3420ED10C6844F0005459
:101030000C60C2F10104C4EBC41404EB440400EBE3
:101040008404C4F30C044C600C6844F000440C604D
:10105000C9685B1C9342DED3296006484169490791
:1010600003D504214161002141600120F0BD000051
:101070009C0000200090024018B500220092124A05
:10108000136903F01C044FF6FF7303EAC0232343E4
:101090004FF4F86000EA8110184320F0020040F09D
:1010A0000100106109490098401C00901069C007B8
:1010B00002D000988842F6D30098884201D10020DF
:1010C00018BD506980B218BD00800240FFFF0400C7
:1010D0000248016841F00101016070470090024040
:1010E00000B50120FFF760FFFFF7F2FC0120FFF7DA
:1010F0004BFF0120FFF79CFC01205DF804EBFFF79C
:1011000059BC01210160002141608160C160016121
:101110004FF4804242618161C161D210026241623A
:101120008162C162016341638163C16340220264E1
:10113000202242648164C164016541658165C165A5
:101140000166802242668166C166016741678167E8
:10115000C167D204C0F880205210C0F88420C0F8C3
:1011600088101311C0F88C30C0F89010C0F894109B
:10117000C0F89810C0F89C10C0F8A010C0F8A420C7
:101180005212C0F8A8209201C0F8AC205212C0F848
:10119000B020C0F8B410C0F8B810704738B50023BC
:1011A0000093124B1C6904F01C054FF6FF7404EA0F
:1011B000C0242C434FF4F86000EA8110204340F033
:1011C000020040F001005A61186109490098401C72
:1011D00000901869C00702D000988842F6D30098A2
:1011E000884201D1002038BD012038BD0080024076
:1011F000FFFF040010B54FF4004000F01DF818B1D7
:101200004FF4807000F012F84FF48044204600F054
:1012100013F8002807D0012000F018F82046BDE898
:10122000104000F003B810BD70470000014908608D
:1012300070470000143C014001460020024A126839
:101240000A4200D001207047143C014010B5122121
:10125000FFF712FF800435D51B4C2078C043207067
:101260004FF4784000F0E6FB20784FF6FF74A0B111
:1012700000F0EEFAC08815A100EB800080B200F00B
:1012800051FA00F0E5FAC08816A100EB400004EA2C
:101290004000BDE8104000F045BA00F0D9FAC0881F
:1012A0000AA100EB800080B200F03CFA00F0D0FA16
:1012B000C08812A100EB400004EA4000BDE81040E5
:1012C00000F030BA10BD00006000002020204E6504
:1012D00074776F726B204361626C652069732020A4
:1012E000000000002020202020756E706C7567675C
:1012F0006564202020202020000000002020206E97
:101300006F7720636F6E6E656374656420202020A4
:101310000000000010B5044611212046FFF7ACFE86
:1013200040F0030211212046FFF738FF60B112217F
:101330002046FFF7A1FE40F0200212212046FFF7D1
:101340002DFF18B1012010BD002010BD002010BDE0
:101350008000A0F1C040002904D0016841F00101E3
:10136000016070470168024A114001607047000047
:10137000FEFF0F0010B5D0E901121143D0E903239D
:101380001A4311434269114382691143C2691143EF
:10139000026A1143426A1143826A1143C26A1143CD
:1013A000026B114302689200A2F1C0421160816891
:1013B000082907D101688900A1F1C0410A6842F0FB
:1013C00040020A60416BD1E9002342EA03128B68B4
:1013D0008C891B0243EA04431A430B8A42EA0352F4
:1013E0000B7D896942EA03620A430168491C89004E
:1013F000A1F1C0410A60C16AB1F5804F08D0006810
:101400006FF070418000A0F1C040C0F8041110BD21
:10141000816BD1E9002342EA03128B680C8A1B021C
:1014200043EA04531A430B7D896942EA0362006868
:101430000A438000A0F1C040C0F8042110BD2DE98E
:10144000F041002201274FF0030C07FA02F50B6868
:101450002B40AB422CD1066853000CFA03F4A64390
:1014600006600E79D0F800809E4046EA08060660C5
:101470000E79012E01D0022E12D18668A643866015
:101480004E79D0F808809E4046EA08068660466895
:10149000AE43466045688E799640B6B235434560A6
:1014A000C568A543C560CC799C40C3681C43C46033
:1014B000521C102AC9D3BDE8F08110B54B07DB0ED2
:1014C0009A40C90800EB8100016A0F249C40A143A7
:1014D0000162016A1143016210BD024600201269D7
:1014E0000A4200D001207047418370470183704752
:1014F000002A01D00183704741837047FEE7000056
:1015000010B54FF0D0412C200880FFF7A3F80B4C0A
:1015100001212046FFF791F82046FFF791F90028B6
:10152000FAD1064C012130342046FFF786F82046D8
:10153000FFF786F90028FAD110BD000028640240A8
:101540000021054A054B926822F81100491C994276
:10155000FAD3FFF7D5BF0000680000200077010034
:101560002DE9F0414FF4C87141430E4600EBC00233
:1015700002EB0015134F4FF4C87000EB0512B8686A
:1015800003E07B8820F81130491C8A42F9D80124F5
:101590004FF448780EE004EBC40000EB0410B96887
:1015A00006EB001001EB400001EB45114246FEF74F
:1015B0005BFE641C7868C088A042ECD8BDE8F041AE
:1015C000FFF79EBF680000201CB50121782000F0C5
:1015D00011FD4CF23370009002208DF804008DF85C
:1015E000050000208DF806008DF807003F4C694685
:1015F0002046FFF724FF0C2200212046FFF75DFF65
:101600000C2201212046FFF758FF0C22042120461E
:10161000FFF753FF0C2205212046FFF74EFF0C2257
:1016200008212046FFF749FF0C2209212046FFF739
:1016300044FF0C220A212046FFF73FFF0C220E2117
:101640002046FFF73AFF0C220F212046FFF735FF17
:101650004FF680700090264C69462046FFF7EFFE5B
:101660000C2207212046FFF728FF0C2208212046E4
:10167000FFF723FF0C2209212046FFF71EFF0C2253
:101680000A212046FFF719FF0C220B212046FFF705
:1016900014FF0C2211462046FFF70FFF0C220D21EC
:1016A0002046FFF70AFF0C220E212046FFF705FF18
:1016B0000C220F212046FFF700FF012000900D4C67
:1016C00069462046FFF7BBFE0C2200212046FFF7AB
:1016D000F4FE20150090084C69462046FFF7AFFE47
:1016E0000C220A212046FFF7E8FE1CBD000C024038
:1016F00000100240001402400018024010B40446DA
:101700000B46203AD2B2064840680168C088504370
:1017100001EB4002214610BC184600F01FB8000043
:10172000680000202DE9F04180460D4600240A4E55
:101730004FF4C87708E021464046FFF7DFFF7068A6
:101740008088204484B26D1C2A780AB1BC42F2D34E
:10175000BDE8F041FFF7D4BE680000202DE9F04756
:101760000024DFF89080D8E901C73CE0002335E091
:101770000C26B5FBF6F6F6004FF0800909FA06F9DB
:1017800032F8146049FA03F919EA060F01D10C2D59
:1017900008D94FF0010909FA03F916EA090F0FD128
:1017A0000C2D0DD9B8F802600D1905EBC50A00EB38
:1017B00003090AEB051509EB051527F815600CE080
:1017C000B8F800600D1905EBC50A00EB03090AEB38
:1017D000051509EB051527F815605B1CBCF80450CE
:1017E0009D42C5D8641CBCF80630A342BED8BDE8F3
:1017F000F08700006800002000B597B0012108467E
:1018000000F022FC012001900020029009210391A8
:1018100004900590069007900421089109900A9081
:1018200010210B910C900D900E900F9010900902CA
:10183000119112901390149001A81590169008A879
:10184000FFF798FD01210420FFF782FD17B000BDCE
:1018500001484068704700006800002070B5012111
:10186000880500F0C7FB26494FF0C84088604FF458
:101870000001FEF712FDFFF7A7FEFFF7BDFFFEF721
:10188000E9FE012001F014FB4FF0D0440126268030
:10189000D020208007206080668008206080D120D2
:1018A0002080002565807120608019206080D22012
:1018B0002080668044206080112020800A2001F072
:1018C000F7FA36202080282060803A20208055209A
:1018D00060802A2020806580658066808F206080FF
:1018E0002B202080658065806580EF206080292026
:1018F0002080BDE8704002480C3000F095B8000030
:101900006800002008484FF6FF7181800021C180E7
:10191000018141818181C181012202704170817008
:10192000C170018270470000A800002010B5FFF7C9
:10193000E9FFBDE810400020FFF702BE70B5054684
:101940001F2000F069F8FFF783FF0446E088C0F12C
:10195000F00080B2FFF704FEE0882946C0F1F000F5
:1019600080B2FFF7DFFEBDE87040002000F054B801
:101970002DE9F0418EB0074600243D460020FFF7D8
:10198000DFFD234800F050F8FFF762FF06464FF6F0
:10199000FF78404600F04EF81F2000F03DF800E0D0
:1019A000641C15F8010B0028FAD1B0884FF4C873F5
:1019B000B3FBF0F1A14201D2B3FBF0F400212022ED
:1019C00001A84254491C3229FBD3002108E0B28807
:1019D0007D5CB3FBF2F2121B01EB52028554491CF1
:1019E000A142F4D30020FFF7BBFDF08801A9FFF767
:1019F00099FEF08808EA4000FFF7B2FD002000F0F1
:101A00000BF8044800F010F80EB0BDE8F0810000BB
:101A10007C0000208400002001B5BDF800000149D1
:101A2000488008BD680000200149486070470000F8
:101A30006800002001B5BDF800000149088008BD1C
:101A40006800002001210148FFF74EBD000402405C
:101A50001CB5012000908DF8040003208DF80500CE
:101A60000121022000F0C6FA044C69462046FFF727
:101A7000E6FC01212046FFF739FD1CBD00040240B1
:101A800070B5124CE06A45698D4202D0E1680129C7
:101A900017D10121E1608169914206D1C169994262
:101AA00003D1BDE87040FFF7D3BF016B914208D16D
:101AB000406B984205D1FFF7C5FFE06AC06B08B1E3
:101AC000E06270BDA06AE06270BD0000000000200E
:101AD0002DE9F0418CB08846FEF769FC06460027E8
:101AE0003D4C6425402003F025F9E062C763A06AFD
:101AF00068B33AA10020FEF727FCE16A0860FEF710
:101B000056FC90FBF5F2E16A8A6190FBF5F205FB69
:101B10001200C86131A10020FEF716FCE16A0860DE
:101B2000FEF745FC90FBF5F2E16A0A6390FBF5F2E3
:101B300005FB12004863206BC163E06A2063006804
:101B40000028CFD1A06AE0620CB0BDE8F08123A1EB
:101B50004046FEF7F9FBE16A0860FEF728FC014603
:101B600091FBF5F2E06A826191FBF5F205FB12113F
:101B7000C1611B49721E8B681A4442610A68A2F255
:101B80006C7205924968491E04914169039181690B
:101B90000291C069019000976846FEF711FB0B9017
:101BA0000BA8FEF727FCE16AC06848610BA8FEF7A6
:101BB00021FC0AA10020FEF7C7FBE16A0860FEF7DE
:101BC000F6FB90FBF5F2E16A0A6390FBF5F205FB88
:101BD00012004863A162B0E700000020230000006B
:101BE0008401002010B58CB003F0F0F803F0D6F9B2
:101BF000214802F05EF90B906FF0FF0002F059F9F6
:101C00000A901D48183802F054F909901920002450
:101C10008DF82140A8238DF82230C0228DF8232092
:101C2000CDE9004015A103A800F0DAFEFFF710FE91
:101C3000C0884FF6FF7101EAC00014A1FFF772FDE2
:101C4000FFF706FEC08803A900EBC00080B2FFF7D3
:101C500069FD15491348CDE90041029009AB0AAA74
:101C60000BA9124803F0D6F9104803F00FFA0F48F9
:101C700003F05DFA0CB010BD1900A8C02020256447
:101C80002E25642E25642E25640000002020537428
:101C900061746963204950206164647265737320C4
:101CA00020200000653C0008C13C0008B80100206D
:101CB00031B5114C00986168401AFA2803D3009896
:101CC000606005F06FFC0098A168411A41F288300D
:101CD000814203D30098A06001F09CFF0098E16866
:101CE000401A0649884205D30098E060BDE83840B4
:101CF00005F0F8BE38BD000048000020E093040065
:101D0000014801F0F1BF0000B8010020FEE700002B
:101D10004FF480510148FFF7E7BB0000000C024080
:101D20007CB54FF48054009401208DF80400022209
:101D30008DF807208DF805000121082000F05AF9E0
:101D4000044D69462846FFF77AFB21462846FFF7EF
:101D5000CDFB7CBD000C02407047000070B598B010
:101D60000121782000F046F90121084600F06CF9C5
:101D7000984E0C2200213046FFF79FFB0C220121D8
:101D80003046FFF79AFB0C2204213046FFF795FB03
:101D90000C2205213046FFF790FB0C22082130462B
:101DA000FFF78BFB0C2209213046FFF786FB0C2244
:101DB0000A213046FFF781FB0C220B213046FFF74A
:101DC0007CFB0C2211463046FFF777FB0C220D21DD
:101DD0003046FFF772FB0C220E213046FFF76DFBF9
:101DE0000C220F213046FFF768FB4FF6337100914C
:101DF00002258DF8045003218DF8051000248DF87C
:101E000006408DF8074069463046FFF718FB724ED2
:101E10000C2200213046FFF750FB0C2201213046F6
:101E2000FFF74BFB0C2202213046FFF746FB0C224A
:101E300003213046FFF741FB0C2204213046FFF717
:101E40003CFB0C2205213046FFF737FB0C22062114
:101E50003046FFF732FB0C2207213046FFF72DFBFF
:101E60000C2208213046FFF728FB0C2209213046BE
:101E7000FFF723FB0C220A213046FFF71EFB0C2242
:101E80000B213046FFF719FB0C2211463046FFF7B5
:101E900014FB0C220D213046FFF70FFB0C220E2104
:101EA0003046FFF70AFB0C220F213046FFF705FBF7
:101EB0004FF6FF71009169463046FFF7C0FA474E72
:101EC0000C2200213046FFF7F8FA0C22012130469F
:101ED000FFF7F3FA0C2202213046FFF7EEFA0C224C
:101EE00003213046FFF7E9FA0C2204213046FFF7C0
:101EF000E4FA0C2205213046FFF7DFFA0C221146E6
:101F00003046FFF7DAFA0C220D213046FFF7D5FAFA
:101F10000C220E213046FFF7D0FA0C220F2130465A
:101F2000FFF7CBFA4FF23F01009169463046FFF7C9
:101F300086FA2B4E0C2200213046FFF7BEFA0C2207
:101F400001213046FFF7B9FA0C2202213046FFF793
:101F5000B4FA0C2203213046FFF7AFFA0C22042119
:101F60003046FFF7AAFA0C2205213046FFF7A5FA02
:101F70000C2209213046FFF7A0FA40F23F210091E0
:101F800069463046FFF75BFA029503940B200490F4
:101F90000120059006940794089409950A9404205A
:101FA0000B9010200C900D940E940F94109411949B
:101FB0000002129013941494159402A8169017908E
:101FC00009A8FFF7D7F901210220FFF7C1F918B0DE
:101FD00070BD0000000C02400010024000140240DE
:101FE00000180240014908627047000000000E42DC
:101FF00070470000054A002903D0116801431160B1
:10200000704711688143116070470000303802400A
:10201000054A002903D01168014311607047116817
:10202000814311607047000010380240054A0029C2
:1020300003D011680143116070471168814311603A
:102040007047000034380240054A002903D0116867
:1020500001431160704711688143116070470000AF
:1020600038380240054A002903D011680143116045
:10207000704711688143116070470000403802408A
:10208000054A002903D011680143116070471168A7
:1020900081431160704700004438024070B5244B02
:1020A000196801F00C01234C00291ED0224E04298E
:1020B0001DD008291DD00460196801F0F00109093C
:1020C0001E4A545C0168E14041601C6804F4E0541D
:1020D000A40A145D21FA04F484601B6803F46043CD
:1020E0005B0BD25CD140C16070BD0460E4E7066068
:1020F000E2E70F4A121F1168C1F38055116801F021
:102100003F0135B1B6FBF1F11468C4F388146143A3
:1021100005E0B4FBF1F11468C4F38814614312685C
:10212000C2F30142521C5200B1FBF2F10160C3E75D
:10213000083802400024F40040787D018C00002023
:1021400002460020510901290BD002290DD009496E
:10215000096802F01F02012393400B4200D00120C6
:102160007047044974390968F3E70249091F09688F
:10217000EFE7000074380240014908607047000032
:10218000800E4742034B1A6822F0EC62084310436A
:102190001860704708380240014908607047000025
:1021A0003C0E4742C0F30121032907D1074B1968B0
:1021B00021F4F8120649014011431960034A6832BC
:1021C0001168C0F30B0001431160704708380240EA
:1021D000FFFCFF0F0649002804D0086840F0040007
:1021E00008607047086820F004000860704700002D
:1021F00000080650010901EB8101490000F00F00C1
:102200000844C0B27047002103E0491CC9B20A3833
:10221000C0B20A28F9D2090740EA116070470EB52A
:1022200001210807FFF71EFF0120FFF7DBFE012059
:10223000FFF7A2FF6120FFF783FF0028FAD04FF4D9
:102240000070FFF7AFFF0120FFF7A6FF00F04CF989
:102250007F200190F920029000200090684600F055
:1022600075F80EBD08B5002000900E4908684006BC
:1022700015D44FF0FF3008608B13086800F0400061
:10228000009A521C0092009A9A4201D00028F4D081
:102290000868400601D5012008BD002008BD0120C6
:1022A00008BD00000C2800400248016821F08001B0
:1022B000016070470C28004010B502460C460E48DD
:1022C00001680E480140080CE070C1F304236370FC
:1022D00001F03F03A370C1F342312170002A0AD1FB
:1022E000FFF788FFE0706078FFF784FF6070A078E8
:1022F000FFF780FFA07010BD042800403FFFFF00E3
:1023000010B502460C460F4801680F480140C1F362
:1023100005402070C1F30623637001F07F03A370B2
:1023200001F48001090CE170002A0AD1FFF762FF75
:1023300020706078FFF75EFF6070A078FFF75AFFAB
:10234000A07010BD002800407F7F7F0070B504465C
:102350000025114ECA20306053203060FFF782FF05
:10236000A8B10D481C38016821F0400101600168E6
:102370002268114301600848A168143801600168AF
:10238000A28841EA02410160FFF78EFF0125FF208C
:102390003060284670BD00002428004070B5054616
:1023A0000C460026002D06D16078C10603D520F02A
:1023B00010000A3060702DB16078FFF71BFFA07825
:1023C000FFF718FF55B1A078E17840EA0145607841
:1023D0002178000240EA413005430FE0E078FFF742
:1023E00012FF05046078FFF70EFF45EA0025A0788C
:1023F000FFF709FF0543207845EA40350E4CCA2017
:10240000206053202060FFF72DFF88B10B48054066
:10241000094820380560FFF747FF07481C38006867
:10242000800604D400F060F810B1012600E0012617
:10243000FF202060304670BD242800403FFFFF0091
:102440002DE9F04105460C4600260020244F002DC2
:1024500006D03968490608D52078FFF7CBFE05E09D
:102460003968490602D4E07000E0E07055B1A07808
:10247000217840EA01456078E178000240EA0140B5
:1024800005430FE02078FFF7BEFE05046078FFF7F4
:10249000BAFE45EA0025A078FFF7B5FE0543E078CF
:1024A00045EA00450E4CCA201C34206053202060B1
:1024B000FFF7D8FE78B10B48054009480838056099
:1024C000FFF7F2FE3868800604D400F00DF810B172
:1024D000012600E00126FF2020603046BDE8F081A3
:1024E000082800407F7F7F0018B500200090104B27
:1024F000CA201860532018600D491839086820F068
:10250000A00008604FF40034086800F02000009A32
:10251000521C0092009AA24201D00028F4D0086810
:10252000800601D5012000E00020FF21196018BDC0
:1025300024280040704700000149086070470000EF
:10254000DC0027420CB50022019200922F49086856
:1025500040F4803008604FF4A043086800F4003075
:1025600000900198401C0190009810B90198984281
:10257000F3D10868800302D50120009000E00092AA
:102580002248009A0830012A2FD1204A403213688D
:1025900043F0805313601E4A136843F440431360B2
:1025A00002680260026842F400420260026842F47B
:1025B000A0520260031F174A1A600A6842F0807234
:1025C0000A600A689201FCD5134B40F205621A605A
:1025D000026822F003020260026842F00202026016
:1025E0000268C2F38102022AFAD1026822F40002D0
:1025F00002600648094A84300260086840F0806042
:10260000086008680001FCD50CBD000000380240DD
:102610000070004019544007003C024080400030E8
:1026200008B500906846FDF7E5FE4269074902F2E9
:102630006C720A600269521C4A60C2688A608268D1
:10264000CA6042680A610068486108BD84010020D0
:102650002DE9F0411F4EB368002B17D030460027FC
:10266000D0E910454069012B12D0022B0ED1836AAC
:102670008B4224D1C06A904221D1FFF751FBFFF772
:1026800047FB0120B0607069406B7061BDE8F0816C
:1026900043698B4209D18069904206D1FFF740FB24
:1026A000FFF736FB0220B060F0E78C42EED1954296
:1026B000ECD1FFF735FBFFF72BFBB760E6E78C4269
:1026C000E4D19542E2D1FFF72BFBFFF721FBB76086
:1026D000DCE70000000000202DE9F05F82460D4697
:1026E00000249AFBF5F7DFF8AC906E1EDFF8A880A7
:1026F0003FE0382002F01EFBC8F8140000214163BF
:102700009CB1D8F818104A692A4442618B698361E8
:10271000D1F818B0D8F804C0E34521DA3244826217
:10272000A3EB0C023C32C2621FE0D9F80C104161ED
:10273000D9F810108161D8F80420914207DAD9F84D
:102740000C3033448362891A3C31C16205E0D9F808
:102750000C302B448362891AC162C8F8100005E06E
:102760002A448262A3EB0C02C2624863C8F81800D4
:10277000641CBC42BDDBD8F81000C8F81400D9F8BE
:102780000C005044C8F84000D9F81000C8F84400C4
:10279000BDE8F09F840100200000002070B50024F7
:1027A00014A1FDF7D1FD144D286006E0641C11A1B1
:1027B0000020FDF7C9FD45F8240055F8240008B1B4
:1027C000062CF3DB2868FDF7F2FDFFF729FFA86868
:1027D000FDF7EDFD04466868FDF7E9FD2146FFF7CA
:1027E0007BFF286900F092F8D5E90501BDE870404B
:1027F000FFF76EB92C0000009C01002010B500F01E
:1028000053F8BDE8104000F047B8000010B512487A
:10281000016841F4700101601048016841F0010154
:1028200001600E4A00210832116002680C4B1A4008
:102830000260031D0B4A1A60026822F480220260C3
:1028400006480C300160FFF77DFE03494FF0006041
:102850008039086010BD000088ED00E000380240BB
:10286000FFFFF6FE1030002470B5DDE90456094C78
:1028700023706570A670231DD87059709A70191F47
:102880000020FFF7DDFD211DBDE870400020FFF7AF
:1028900085BD000038000020024801680A3101604F
:1028A00070470000000000200348416B002902D05F
:1028B000416B491E41637047000000207047FEE7EE
:1028C00070B5114C236ADD68854209D11D698D42BE
:1028D00006D15D69954203D1BDE87040FFF720BA8B
:1028E0009D6985420BD1D869884208D1186A904207
:1028F00005D1FFF70DFA206A406A08B1206270BD69
:10290000E069206270BD0000000000202DE9F04168
:10291000074600252F4C6426282002F00BFA20627F
:102920004562E06950B32CA10020FDF70DFD216A3E
:102930000860FDF73CFD014691FBF6F2206AC2609B
:1029400091FBF6F306FB1311016145618261C161E0
:10295000006822A1FDF71AFD042835D0206A4169DC
:102960000A310162D4E908014862206A60620068A5
:102970000028D1D1E0692062BDE8F08116A1384677
:10298000FDF7E2FC216A0860FDF711FD90FBF6F20D
:10299000216ACA6090FBF6F306FB130008614D61E3
:1029A0008A61C86108680DA1FDF7F0FC042806D013
:1029B000206A41690A310162206AE061D5E7206A34
:1029C0004169491D0162F7E7206A4169491D0162B9
:1029D000C8E70000000000202300000057000000AE
:1029E0000FB4084B10B504A902AA039800F020F810
:1029F000044602A9002000F0F7F8204610BC5DF85C
:102A000014FB0000E92B00080048704780010020FB
:102A100002E008C8121F08C1002AFAD170477047A7
:102A2000002001E001C1121F002AFBD17047000005
:102A30002DE9FF4F8BB09A460F460546002606E06B
:102A400025280BD052460D9990476D1C761C28788E
:102A50000028F5D10FB03046BDE8F08F0024A04625
:102A60000122604900E0044315F8013F203B02FACF
:102A700003F00842F7D128782E2817D115F8010F56
:102A800044F004042A280ED06FF02F022878A0F119
:102A9000300109290AD808EB880102EB410100EB5B
:102AA00001086D1CF2E757F8048B6D1C2878692823
:102AB0003ED006DC0028CDD063280BD0642804D19A
:102AC00036E0732810D075284BD052460D999047A8
:102AD000761C85E017F8040B8DF8000000208DF8B7
:102AE0000100E946012003E057F8049B4FF0FF3056
:102AF00061074FF0000401D40AE0641C44450DDA7C
:102B00008442FADB19F804100029F6D106E0641CAF
:102B10008442FCDB19F804100029F8D1264404E0B3
:102B200019F8010B52460D999047641EF8D257E0F0
:102B300001CF4FF00A0B002802DA40422D2102E0BB
:102B4000210504D52B218DF82410012103E0E10794
:102B500005D02021F7E70DF1200908910CE00021B4
:102B6000F9E701CF4FF00A0BF9E75946FDF72CFCC6
:102B700001F1300209F8012D0028F6D1ADEB090072
:102B800000F1200B600701D44FF00108D84502DDA9
:102B9000A8EB0B0000E000208046002406E009A816
:102BA0005246005D0D999047641C761C089884423B
:102BB000F5DB04E0302052460D999047761CB8F1C1
:102BC0000001A8F10108F5DC05E019F8010B5246F7
:102BD0000D999047761CBBF10001ABF1010BF4DCC1
:102BE0006D1C34E7092801000A68531C0B60107043
:102BF000704700001FB5416A064B0122CDE9001362
:102C0000CDE9021200F12B031946034A00F07AFFC6
:102C100004B010BD9A9F0008949F00087FB5044639
:102C2000606A002830D0007900282DD02434E07963
:102C30008DF80000207A8DF80100607A8DF802008E
:102C4000A07A8DF80300E07A8DF80400207B8DF8DF
:102C50000500D1F80E2003928D69029554F82409DD
:102C600008310379012B10D0022B01D1437963B1D4
:102C70000068824208D106226846FDF740FB002822
:102C800002D0204600F038F87FBD0068824207D0AD
:102C90008542F9D106226846FDF731FB0028F3D0C2
:102CA000204600F03BF87FBD70B504460E46243444
:102CB0000E4DE07A217B40EA0120284401F0F9F82A
:102CC00002F043FA2168497A0844094980B208436E
:102CD000A84201D200F57E400649884201D9A0F5FC
:102CE0007E4001F0E6F8306070BD00000001FEA9F2
:102CF0000000FEA9FFFEFEA910B50446606A007A36
:102D0000002804D02046BDE8104000F007B8204657
:102D1000FFF770FF616A6420087210BD2DE9F04171
:102D200005466C6A0027284602F09AF910B1284639
:102D300002F0B2F900266E60AE60EE608CB12671D2
:102D4000E68066712660267221462846FFF7ACFFB2
:102D5000607A401C6072284600F010F83846BDE8E2
:102D6000F0810A2002F04CF8044624B12660666027
:102D700026816C62E8E74FF0FF30F0E710B550F8BD
:102D8000241F01220A7100224A71C27A037B447A0D
:102D900042EA0362837A00681B0443EA04231A436D
:102DA000002801D0407A00E0002010440A22B0FB45
:102DB000F2F302FB1300C880487A0A2802D94FF4C4
:102DC0001670C88010BD000010B5A0B007A8FDF7B0
:102DD00081FA1E4800901E49D0E9052307A8FFF795
:102DE000FFFD07A8FDF776FA1A4C82B2012307A966
:102DF000206904F002FC88B194F9002016A102A811
:102E0000FFF7EEFDFEF724FDC08802A900EB80006D
:102E100080B2FEF787FC012020B010BD206903F0CE
:102E2000EBFA80B194F9002011A102A8FFF7D8FDB8
:102E3000FEF70EFDC08802A900EB800080B2FEF70D
:102E400071FC0120E8E70020E6E70000F001002027
:102E500040A0000848000020202057524954452037
:102E60004552524F523A20436F64653A2025640020
:102E7000202053454E54204552524F523A20436F22
:102E800064653A202564000010B504460021204600
:102E900002F046FD0021204604F02AFA00212046D7
:102EA00004F0E6F82046BDE8104002F03BBD00000B
:102EB00001B581B0054901984843009002E00098AF
:102EC000401E009000980028F9D10CBDA08601009A
:102ED00000224262426A92B28A42FBD970470028BD
:102EE0000BD0026A002A08D0937C082B05D1096810
:102EF000926A914201D100F083B8704770B50546DF
:102F0000002D0DD02C6A74B100224FF49A71104636
:102F100002F01FF9606148B1E27C37494AB10BE029
:102F20006FF0090070BD6FF0080070BD4FF0FF300A
:102F300070BD0A68521C0A60096821604068A0617F
:102F400001210170A0694170A16906208870A06903
:102F50000026C670206800F0ACFFA1694860A06937
:102F60000681A0694681A069C660A07C0A2803D0BA
:102F7000052801D0042802D1A1696868C860A06949
:102F80000661A0694661A0698661002195F82A0062
:102F9000884203D9681890F82B0000E00020A3694C
:102FA00001F11C029854491C89B21029EED300206B
:102FB000A26900F12C015654401C80B24028F7D37E
:102FC0000020A26900F16C015654401C80B2802898
:102FD000F7D30A4800F06DFFA169C1F8EC00A683A1
:102FE0000020A26900F1F0015054401C80B2442836
:102FF000F7D3002070BD0000BC0000206353826343
:10300000F8B505462C6A0C21204600F093F82846B6
:10301000FFF774FF0646300027D1012235212046F4
:1030200000F040F80421204600F04AF80422322142
:10303000204600F037F8A06A02F087F801462046E3
:1030400000F045F8204600F05FF8A08BF03081B228
:10305000606902F018FA009543230A4A61696068C2
:1030600004F091FC284600F00FF8E07C401CE0746E
:1030700042F603104FF4FA71B0FBF1F0E0833046F2
:10308000F8BD0000909F000810B5002809D0046A20
:10309000002C06D0606908B102F098F90020606148
:1030A000A06110BD10B5838B5C1C84838469F033F0
:1030B000E154818B4B1C83838069F031425410BDF5
:1030C000828B531C83838069F0328154704710B522
:1030D000828B0C0E531C83838369F0329C54828B49
:1030E0000C0C531C83838369F0329C54828B0C0A32
:1030F000531C83838369F0329C54828B531C8383DB
:103100008069F032815410BD002812D0818BFF23DA
:103110004A1C82838269F0315354002304E04A1C24
:1031200082838269F0315354818B4429F7D38A0713
:10313000F5D17047827C8A4202D081740021C1742B
:10314000704700002DE9FC5F05464FF00008DFF8EE
:103150002CA156464FF08044208840F0010020808A
:103160000020DFF81C91009003460190012280218D
:10317000484600F08BFE8021484600F078FE44F27D
:1031800050612046FFF7A4FE8021484600F08EFEE5
:1031900028212046FFF79CFE00231A46802148463E
:1031A00000F06AFE4FF0FF3B04E0761E002E01DCCB
:1031B000D84605E08021484600F05CFE0028F4D0A7
:1031C0005746B8F1000F05D00AE07F1E002F01DC42
:1031D000D84605E08021484600F04CFE0128F4D096
:1031E000B8F1000F2BD100240027564604E0761ECC
:1031F000002E01DCD84605E08021484600F03AFE6A
:103200000028F4D08021484600F034FE012803D184
:103210001E218007FFF75CFE285D400028558021B5
:10322000484600F027FE012813D0285D00F0FE007C
:1032300028557F1C082FD8DB641C052CD4DB4FF0ED
:103240008040018821F001010180B8F1000F09D010
:1032500010E02821C806FFF73BFE285D40F0010082
:103260002855E6E72878A97808442979884201D0CA
:103270006FF001084046BDE8FC9F0000A0860100F9
:103280000014024070B50246C2EBC2002A4900EBAE
:10329000800001EBC0042078002816D0C2EBC201E8
:1032A000254B01EB810103EBC103002601250C3303
:1032B00001280BD0022814D0032806D1A068401E94
:1032C000A06002D12670C4F8106170BD0220207089
:1032D00030466670A570E070BDE87040194600F099
:1032E000C1B9A078401E10F0FF00A070EDD1E078C9
:1032F000401CC0B2E070042806D0A0706078BDE821
:103300007040194600F0AEB96078401C022807D220
:103310000A4951F8201019B16070A570E67070BDAF
:10332000D4F8105125B100211846D4F81421A8472B
:103330002670C4F8106170BDE03E0020C800002077
:1033400030B5032311F8012BB3EB921F10D009E025
:1033500004780D78AC4201D0012030BD491C401CDE
:10336000521ED2B2002AF3D1401C0A78002AE9D1B9
:10337000002030BD2DE9F047814600231F46002480
:10338000DFF88080DFF880C098F80060C4EBC400EC
:1033900000EB80000CEBC00005785DB1032D05D17A
:1033A0000579751BBD4201DDEFB22346641CE4B212
:1033B000042CEBD3042C10D1042B07D2C3EBC30095
:1033C00000EB80001CF83040032C03D04FF0FF309E
:1033D000BDE8F0871C460CEBC000012303700671AA
:1033E000761C88F80060C0F81011C0F81421494616
:1033F0000C30FCF791FF2046FFF744FF6FF00D0003
:10340000E6E70000C0000020E03E00202DE9F0418A
:1034100005460C4616461F4612484068002808D04C
:103420003CB135B1287820B12846FCF753FFFF287E
:1034300003D96FF00800BDE8F081284600F028FEAF
:103440002060401C05D1284600F038F82060401C60
:1034500001D00020EFE73A4631462846BDE8F0416A
:10346000FFF788BFC000002038B50DA000F010FEA7
:1034700000900F4C6068002811D104F05FFA606082
:1034800000280CD000220B4904F030F900220A4930
:10349000606804F061FA6946002000F045F938BD23
:1034A0003230382E36372E3232322E32323200005F
:1034B000C00000208C9F00082D35000870B506461E
:1034C0000024104DC4EBC40101EB810115F831005B
:1034D000032806D105EBC1010C313046FCF701FF92
:1034E00030B1641CE4B2042CECD34FF0FF3070BD5B
:1034F000C4EBC40000EB800005EBC000D0F80C0169
:1035000070BD0000E03E0020032210F8011BB2EB6A
:10351000911F08D002E0401C491EC9B20029FAD10F
:1035200001780029F1D1401C704700002DE9FE43CD
:1035300017463A89B2F5007F73D81A2A71D300234F
:103540004649384601F00CFF3989884269D1434E1B
:10355000308800F0BAFCC0B2042862D2C0EBC000D0
:1035600000EB8000A6F58C6101EBC00420780228F6
:1035700057D103202070F07800F00F006071B08800
:1035800000F0A3FC00F0FF08F08800F09EFCC5B23C
:10359000B078000638D56079B0BBB8F1010F33D1EF
:1035A00006F10C0104F10C000E468046FFF7C8FE40
:1035B00050BB3046FFF7A8FF001D23E0FFF7A4FF34
:1035C000064631680091716801913089ADF80800B4
:1035D000BDF8000001F0BBFD01280BD1BDF80200D1
:1035E00001F0B5FD012805D1BDF8080001F0AFFDDF
:1035F00004281BD0BDF8080000F067FC30440A30F6
:103600006D1EEDB2002DD9D1D4F810312BB10021AF
:1036100004F10C00D4F81421984700202070C4F85D
:1036200010013846BDE8FE4301F0D0BE019801F01C
:103630008CFDA0600A49884200D9A160D6F80A0032
:10364000C4F80C01D4F81031002BEAD004F58671CF
:103650004046D4F814219847E3E700004043002097
:10366000803A09002DE9F84380460D469146002234
:103670004FF48871104601F06CFD064630004CD0C6
:103680007468002727606760A760484600F01DFC4B
:1036900020800120A07000F018FCA0800C346D1E6A
:1036A0006D1C2246641C002004E004F8011B401C31
:1036B000C0B26D1C29782E2901D00029F5D11070D7
:1036C00028780028ECD104F8017B012000F0FDFBF4
:1036D000ADF80000012000F0F8FBADF80200009802
:1036E0002060B088201A001D81B2304601F0CBFE68
:1036F0000C48352200EB8801A0F108050C466868EB
:1037000004F026F8224635233146686804F027F98C
:103710000446304601F05AFE01E04FF0FF342046E7
:10372000BDE8F883C800002002280DD2074A52687D
:10373000002A09D0002907D00968002904D0034ACB
:10374000083202EB8000016070470000C0000020DA
:103750002DE9FC410C46FEF77BF8C08811A100EB77
:10376000800080B2FDF7DEFF1648216841612068C5
:1037700001F0EBFCC5B2206801F0E7FCC0F30726BE
:10378000206801F0E2FCC0F30747206801F0DDFC8F
:10379000CDE90065020E3B460BA10E48FFF720F96C
:1037A000BDE8FC8120205375636365737320746FDB
:1037B000207265736F6C766520646F6D61696E2130
:1037C000000000004800002025752E25752E257567
:1037D0002E257500F00100202DE9FC4706460F4616
:1037E0009046002E06D0B8F80A002A2804D2404697
:1037F00001F0ECFDBDE8FC87D8F8045005F10E049B
:10380000012000F062FB2188884214D140F204605C
:1038100000F05BFBA18888420DD14FF4006000F0FE
:1038200054FB6188884206D140F6060000F04DFB4B
:10383000A989884203D0404601F0C8FDDAE7214655
:103840003046FFF7EBF9D4F80E000190A169009122
:10385000706820B1814205D14FF0010904E04FF0BA
:10386000000901E04FF00009B9F1000F07D0012372
:1038700004F1080201A9304604F0E0F806E0002354
:1038800004F1080201A9304604F0D8F8E08800F0FD
:103890001CFB012802D002282ED129E0B9F1000F2B
:1038A0002AD0022000F011FBE080D4F80E00A061C5
:1038B0007068C4F80E000620716A19B1097909B15F
:1038C0000F4A0EE004F108020BE0401EC0B22118BE
:1038D0000B7A8B74135C2B543B5C0B722B18395C8A
:1038E00099710028F1D1B26941463046904703E012
:1038F00001A93046FFF7F3FA404601F067FD79E78A
:10390000949F000830B400280FD04A6802F10E01DD
:103910008368CC6845681C401D40AC4205D100233B
:10392000921D30BC0C3104F089B830BC70470000E7
:103930002DE9FC4105460E4614460E21304601F0A5
:103940006EFD18B16FF00100BDE8FC8129462046EC
:1039500000F05CFC08B1234B28E04FF0704001F010
:10396000F4FB216800EA01074FF0604001F0EDFB35
:10397000874222D101208DF8000000208DF801003F
:103980005E208DF80200206801F0DFFBC0F30640E6
:103990008DF80300206801F0D8FB000A8DF80400C0
:1039A000206801F0D2FB8DF805006B4605F12B0273
:1039B0003146284600F014F9C6E7A86821686A680D
:1039C00001400240914203D0E86838B105F10C048F
:1039D00032462146284600F007F8B5E76FF00300AD
:1039E000B2E70000949F00082DE9F05F82460C4684
:1039F00016460AF12B0B4FF0FF395146204600F0D6
:103A000005FCF0B94FF0704001F09FFB216800EA1F
:103A100001054FF0604001F098FB854211D084B160
:103A2000206870B10121204600F074F900280ADBFB
:103A3000DFF8CC8000EB800708EB8705A87B20B17E
:103A400005E06FF00900BDE8F09F0120A873A87B96
:103A5000012800D026B92146504600F0AFF8814633
:103A6000EEB3A87B022802D0012809D046E005F178
:103A700008035A463146504600F0B2F881463DE010
:103A80000021344605E0207B012801D0012102E01D
:103A90002468002CF7D181B121890022032001F094
:103AA00058FB05466DB13146284601F00EFC40B189
:103AB000284601F08BFC002503E03546284601F03E
:103AC00009FD65B1062001F095FA0146080012D003
:103AD000002008604D6058F8270010B906E00DE09E
:103AE00010460268002AFBD1016001E048F8271067
:103AF0004FF0000902E0284601F068FC4846A2E7C2
:103B0000D8C000202DE9F05F0746DDF82CA08846DC
:103B10009346994600222A21032001F01AFB06460B
:103B200030000ED0756805F10E040D9800F0CDF947
:103B3000E0800620796AC1B10979B1B1DFF878B0C7
:103B400013E04FF0FF30BDE8F09F401EC0B22118D7
:103B500019F800200A721AF800208A741BF8001065
:103B600029542A1818F8001091710028EDD10A98EC
:103B70000068C4F80E000C980068A061012000F0F5
:103B8000A4F920804FF4006000F09FF9608040F2BB
:103B9000046000F09AF9A08040F6060000F095F964
:103BA000A881BA693146384690470446304601F04C
:103BB0000DFC2046C7E70000949F00081FB50123B5
:103BC000064C021DCDE90213CDE9002400F12B03C0
:103BD0001946A21FFFF796FF04B010BD9A9F000878
:103BE0002DE9F04106460F467D680624641EE4B2C6
:103BF000185D28552919105D8871002CF6D14FF4F5
:103C0000006000F062F9A88139463046B269BDE82B
:103C1000F04110472DE9F0410024114FA04604EB7C
:103C2000840607EB8605E87B401CC0B2E873A97BDD
:103C3000022901D1F02803D201290AD1022808D390
:103C400057F8260018B100F003F947F8268085F8E8
:103C50000E80641CE4B20A2CE1D3BDE8F0810000C0
:103C6000D8C0002070B504460D466068808900F019
:103C70002CF9B0F5006F08D0A0F50060063817D019
:103C8000204601F0A3FB002070BD21462846FFF727
:103C900039FE6FF00D01204601F0C1FB18B120463E
:103CA00001F094FBEFE72946204600F06DFBEAE7C0
:103CB000224605F12B012846FFF78EFDE3E70000C1
:103CC00010B5732180F83210742180F83310044944
:103CD00041610449816100F0C7FE002010BD000071
:103CE00031390008654B000870B50546284600F0DC
:103CF000F5FE044654B12A692946204690470546F8
:103D000015B1204601F062FB284670BD4FF0FF3030
:103D100070BD00002DE9F35F04464FF00A0AD34658
:103D20000A2200218C46884696468946464E002C3B
:103D30000FD04648007800EB800306EB83039D7BA1
:103D4000022D06D125685B689D4202D140B2BDE8D4
:103D5000FC9F0A2A05D101EB810006EB8000807BE5
:103D600048B101EB810306EB8300857B012D04D074
:103D7000022D1CD02AE04AB228E03CB125684768F1
:103D8000BD4203D13148017048B2E0E756F8233014
:103D900033B1C37B4B4519D34FFA81FE994615E0E9
:103DA000C57B654512D34FFA81FAAC460EE03CB1B3
:103DB00023684568AB4203D12448017048B2C6E786
:103DC000C77B474502D34FFA81FBB846491CC9B2AD
:103DD0000A29BED34FF0FF310A2A02D10198C00749
:103DE00002D00198800701D50846B0E700270A2ACB
:103DF00001DAD5B218E0BBF10A0F02DA0BF0FF05C9
:103E000012E0BAF10A0F02DA0AF0FF050CE0BEF187
:103E10000A0F16DA0EF0FF0505EB850856F82800A4
:103E200000F016F846F8287005EB850006EB8000D8
:103E300087730CB121684160C7730448057068B28C
:103E400085E7084683E70000D8C000207001002005
:103E500070B5044608E025462468686801F0B6FAA3
:103E60002946062001F08EF8002CF4D170BD002206
:103E7000FDF73EBBFDF731BB1CB500918DF804206A
:103E80008DF807306946FDF7DAFA1CBD7CB5DDE92F
:103E9000064500918DF804208DF805308DF8064018
:103EA0008DF807506946FDF7CAFA7CBD0122FDF77F
:103EB0001FBB010600F47F4241EA022100F47F02A9
:103EC00041EA122141EA106070470106090C41EAFB
:103ED000102070470A46032100F0A2B82DE9FF47E1
:103EE000054688466C68208801F031F9C0F303204C
:103EF000870079428946284601F091FA00287DD151
:103F0000288904287AD36868007808287CD101269B
:103F10004FF0704001F019F9216900EA010A4FF0F1
:103F2000604001F012F9824500D10026414604F1BB
:103F3000100000F06BF900B1002666B1288908284E
:103F400068D3284600F03EF958B104B02846BDE8D1
:103F5000F04701F03BBA04B02846BDE8F04701F055
:103F600035BA2221284601F05AFAD8B139462846F6
:103F700001F055FAE0B929890022022001F0E9F8A0
:103F80000646AEB12946304601F09FF980B9746803
:103F90004946304601F043FA50B9284601F016FA76
:103FA00035460BE06FF02101284601F038FA28B1C0
:103FB00004B02846BDE8F04701F008BA6868E16837
:103FC00003912269E2602161002606704680208903
:103FD00001F0BDF8C0B240F47F40FFF776FF2081CA
:103FE00066813946284601F01AFA40B90120CDE928
:103FF0000108FF23002204F10C0101E00AE003E0C4
:104000000096284600F0B8FA04B02846BDE8F0470C
:1040100001F0DCB904B02846BDE8F04701F0D6B99C
:104020002DE9FC4780460E469146002224210120BE
:1040300001F08FF80546280024D0D8F804706C6889
:10404000267084F801900026A680E6806868D8F87B
:10405000041008301C22FCF707F9668069892046A5
:1040600000F0AAF860800120CDE90060FF2307F18D
:104070000C020021284600F065FA2846BDE8FC47FE
:1040800001F0A4B9BDE8FC870A460B21FFF7C8BFC1
:1040900008B5694600F006F808B1009808BD4FF071
:1040A000FF3008BDFFB503460F466D461A78A2F1F2
:1040B00030000A2802D3002004B0F0BD00200A24FA
:1040C000302A06D113F8012F782A0BD0582A09D0AC
:1040D0000824A2F13006092E08D800FB046013F86A
:1040E000012FF6E7102413F8012FF2E7102C13D15B
:1040F000A2F16106052E03D9A2F1410105290BD8D1
:10410000192E01D8612100E04121511A0A3141EAFA
:10411000001013F8012FDCE72E2A0ED0B2B1202AAE
:1041200014D00C2A12D00A2A10D00D2A0ED0092A37
:104130000CD00B2A0AD00020BEE703A98D4201D380
:104140000020B9E701C513F8012FB0E76946691AE5
:10415000012202EBA101052928D2DFE801F00327A3
:10416000050E1A000020A7E7B0F1807F01D30020E0
:10417000A2E7009940EA016018E0B0F5803F01D362
:10418000002099E70099019A090641EA0241084393
:104190000CE0FF2801D900208EE70099019A09065A
:1041A00041EA0241029A41EA0221084317B1FFF7AE
:1041B00080FE386001207FE710B500F0EBFCC043C3
:1041C00080B210BD70B505460024002613E0698951
:1041D000686800F0DFFC204481B201EB1044A87A4B
:1041E000C00707D0C6F10100C6B2E0B2C4F3072190
:1041F00041EA00242D68002DE9D126B1E0B2C4F3D4
:10420000072141EA0024E04380B270BD0068421CEF
:1042100007D0020005D091F83120920703D4002086
:104220007047012070474A68824201D100207047E0
:10423000896800EA01030A40934202D10143491C04
:1042400001D0002070470120704700002DE9F74F92
:1042500084B00598068D4FF0140A02220021104602
:1042600000F077FF81465FEA090023D0A9F80A60D1
:10427000A9F80860434820F00305C9F804500498E1
:10428000142241682846FBF7EFFFE88800F05FFF43
:10429000C0F30C0700F40050019004980089143812
:1042A00084B2143EF01706EB5070C0F3CF00CDE996
:1042B00002065AE04FF0FF3007B0BDE8F08F0398D8
:1042C000844202DC4FF0010B01E04FF0000B01983B
:1042D000C7F30C060643BBF1000F01D146F40056AC
:1042E00001D0204602E002984FEAC0001FFA80F891
:1042F0005346424605F11401049801F031F8504448
:104300001FFA80FA3046FFF7E0FDE88008F114005C
:1043100080B2FFF7DAFD688000206881142128460A
:10432000FFF74AFF6881BBF1000F05D004F11400CC
:1043300081B2484601F0A7F800221146022000F0A1
:1043400008FF0646C6B14946304600F0ABFF059867
:104350003146069A43699847304601F037F8A4EB96
:10436000080084B20298384487B2002CA7D148468E
:1043700001F02CF800209FE7484601F027F84FF0A5
:10438000FF3099E7FBBA00202DE9F84F06460F46AB
:104390004FF001097568288800F0D9FE0421B1EBBF
:1043A000103F05D0304601F011F80020BDE8F88F2D
:1043B000288800F0CCFEC0F303204FF6FF7101EA1D
:1043C000800A688800F0C3FE01467089504502D318
:1043D0003089884204D2304600F0F8FF0020E5E73B
:1043E000304601F050F84FF001083C4605F110004E
:1043F000DFF848B10090204600F032FE58B1201D91
:1044000009D0606838B12969814212D021460098EC
:10441000FFF7FCFE68B9B8F1000F04D04FF00008B8
:10442000DBF8004000E02468BC4200D12468002C86
:10443000E1D17CB9288900F08AFEC0B2112809D1E7
:1044400005EB0A00408800F082FE442802D13C4679
:104450004FF000094FF070484FF0604AB9F1000F7B
:1044600017D0E868A8B1394605F10C00FFF7CEFE79
:1044700050B9404600F069FEE96800EA010950467B
:1044800000F063FE814504D1304600F09FFF00201C
:104490008CE7ACB143F6FF70FFF717FDE9880842DF
:1044A00005D0304600F0D4F8064676B17568244C45
:1044B0006760A5603946304601F03CF838B139E014
:1044C000304600F083FF002070E700206EE7288967
:1044D00000F03DFEC0B2012814D006280DD01128EE
:1044E00006D0394605F11000FFF790FE78B11EE0C6
:1044F0003946304603F054F91CE03946304601F0A5
:10450000CBFC17E039463046FFF7E8FC12E04046A6
:1045100000F01BFE296900EA0107504600F015FE75
:10452000874204D0756002213046FFF7D3FC304645
:1045300000F04CFF00206060A06037E7E40000203E
:104540005C0100202DE9FE430746DDE90A45884667
:1045500016469946304600F063FA50B102904B4639
:1045600032464146CDE90045384600F005F8BDE841
:10457000FE836FF00300FAE72DE9F05F0646DDE900
:104580000A890C9D8A4617469B46002F48D0142165
:10459000304600F044FF18B16FF00100BDE8F09F15
:1045A0007468208900F0D3FD6BF31F20FFF78DFCAA
:1045B000208100F0CCFD20F0FF0040EA0900FFF769
:1045C00084FC2081386820611FFA88F040F48A401A
:1045D000FFF77BFC20803089FFF777FC60804FF08D
:1045E0000009A4F80690DFF86480B8F80000FFF72F
:1045F0006CFCA080B8F80000401CA8F80000BAF1DC
:10460000000F06D0DAF8000018B1E060A4F80A90B4
:1046100008E0281D02D06868E060F7E70020FBE7AB
:1046200077681037288D48B13189814206D93A46DA
:1046300029463046BDE8F05FFFF708BE3A463146EE
:1046400028466B69BDE8F05F184700005C01002058
:104650002DE9F05F83460027DBF80450288800F03E
:1046600076FDC0F3032005287ED1E88800F06FFDB9
:10467000C0044FEA1049688800F069FD04462888A4
:1046800000F065FDC0F30320404204EB80001FFAF8
:1046900080FA584600F010FE0646DFF82C81B8F884
:1046A000000030440A280AD93146284600F07EF935
:1046B000002859D0B8F8000030440A287FD8D8F82C
:1046C00004400DE06069E968884207D1A069296962
:1046D000884203D1A089A988884203D0274624684C
:1046E000002CEFD12CB1E88800F031FDC00408D0D7
:1046F00012E03146284600F0F7F8044620005ED06C
:104700000AE0E08900F023FDC00405D01422294608
:1047100004F10800FBF7A8FDB8F800003044A8F841
:104720000000E88800F013FD800406D4A07F40F06C
:104730000100A07709EB0A00A0835946204600F04B
:1047400045F8C8B3A08B1430A0836068466835680C
:10475000142204F108013046FBF786FDA08BFFF719
:10476000B4FB7080002000E029E0F080708114210B
:104770003046FFF721FD7081D4F804906FF0130AE2
:1047800009E06E685146284600F049FE2946484631
:1047900000F074FD3568002DF3D13946204600F055
:1047A00091F8484600F088FDB8F80010081AA8F8FB
:1047B00000004846BDE8F09FFFE70020FAE75846B2
:1047C00000F004FE0020F5E7680100202DE9F04725
:1047D00007460E4600240125D6F80480B8F80200EA
:1047E00000F0B5FC8146B8F8000000F0B0FCC0F362
:1047F0000320404209EB8009B8F8060000F0A7FC4E
:10480000C004010C736800201860998001EB090056
:104810001FFA80F8A3F806807A681CE05068B0F8A8
:1048200004C061450CD21A6044B1B4F806C06145B9
:1048300039D38088804536D826600EE07E600CE053
:1048400031D0C28891422ED31CB1E288624500D09B
:10485000002502680446002AE0D142B934B126603E
:10486000E0889988884202D0002500E07E60B87F09
:10487000C00716D095B178684068808808B10025D7
:104880000CE0196808E04868D9888288914201D014
:10489000002503E0034601680029F4D12846BDE85D
:1048A000F0870020FBE7304600F006FD0146044893
:1048B0000288511A0180304600F088FD0020EEE7A2
:1048C0006801002030B40B46064902684C688442F7
:1048D00001D14A6000E01A60014630BC052000F0BA
:1048E00051BB00006801002070B506460D4605204A
:1048F00000F080FB044654B92946304600F056F8D3
:10490000A84203DB052000F075FB04468CB1202192
:104910002046FBF7C2FC0320E0770748416821608E
:1049200044601422314604F10800FBF79DFC204648
:1049300070BD002070BD0000680100202DE9F0412D
:10494000064688460025746860688188002912D16F
:1049500000687060142206F108016068FBF784FCAF
:1049600001212046FFF790FB204600F0A5FC0546FC
:10497000204600F02BFD746809E060682746046853
:10498000384600F099FC0544384600F01FFD002C25
:10499000F3D141463046FFF795FF03490888401B95
:1049A00008802846BDE8F081680100202DE9F0412B
:1049B00005460F460026DFF864800020002300240F
:1049C000D8F804101AE04A69D5F80CC0624509D13C
:1049D0008A69D5F810C0624504D18A89B5F804C047
:1049E000624507D0641CB8B1CA7F90F81FC0624509
:1049F00000D808460A6802B10B4611460029E2D1E8
:104A000018B11946FFF79AFF0644BE4201DA012C9D
:104A1000D3DC3046BDE8F0810846EBE768010020B2
:104A200070B505460E4804680DE0204600F018FBFE
:104A300040B1A0682968626801400240914201D1FA
:104A4000204670BD2468002CEFD1064C206820B1B0
:104A500000F006FB08B1206870BD002070BD0000AA
:104A6000E4000020E800002070B50446062004F8A9
:104A70002A0F022060700020A070E0702071607129
:104A8000A0712A3C04F12B01FCF72CFA40F2DC5017
:104A90002085322084F8310005220C490C48FBF7B0
:104AA000D7FF05220B490C48FBF794FF0024084D63
:104AB0004FF4400605EB44103146FBF7EDFF641C54
:104AC000052CF7DBBDE87040FCF70ABB1021002085
:104AD000AC0200204C0300200C020020F0B587B08F
:104AE000002501A8FCF7B6F801A804AB07C807C366
:104AF000049881B2059F0322104600F02AFB064667
:104B000030000BD0344607E0628979196068FBF702
:104B1000ABFB608905442468002CF5D10F4A10686E
:104B20008168012901D9006800E0069800214FF052
:104B3000004302E00360C068491C1468A4688C420A
:104B4000F8D810680021816005484269120602D534
:104B500080224261816007B03046F0BDA400002091
:104B60000090024070B50C46002509480068866830
:104B700007E0628970196168FBF776FB608905447C
:104B80002468002CF5D1A8B2FCF71EFA002070BDF5
:104B90009C00002030B4002207E003781B02447818
:104BA000801C1C432244891E89B20129F5D811B109
:104BB00000780002024490B200EB1240010C02D0D7
:104BC00081B201EB104030BC80B2FFF77EB900002B
:104BD00096B03C223CA107A8FBF746FB03A8FDF7D3
:104BE0005DFA04986421B0FBF1F0401EB0F1807FC3
:104BF00009D24FF0E0214861424AF02010700020B5
:104C000088610720086101214020FDF70FFA01208B
:104C1000FDF7E0FA4FF0804002F056FDFDF79EF8F8
:104C2000FCF71CFEFCF782FE37A0FCF7A1FE3AA0C1
:104C3000FCF784FEFBF74EFEFCF7D4FFFBF732FED9
:104C400007A8FDF7ABFDFDF7EAFA3848017D027CC5
:104C5000CDE90021017B027AC91CCBB20179008821
:104C600080B2FDF701FEDFF8C8A0AAF10404A4F1A8
:104C7000380B2F490020FDF71FFB2D490020091F8D
:104C8000FDF73EFB9AF801809AF802702578667865
:104C900094F80290324629463846FDF7D9FC4A4638
:104CA00031462846FDF70CFE33462A463946404633
:104CB000FCF7E6FEFBF74AFE08B1FDF721F8DBF84A
:104CC0000000FCF7F5FFD4E73134333832343633A3
:104CD00032392C362C332C352C23303533305723B6
:104CE00031323030502C332C23303830304F233198
:104CF0003930304323303930304F2331383030436E
:104D00000000000023ED00E02045746865726E65C8
:104D1000742074657374000020202020206C6F6361
:104D2000616C74696D653A20000000008401002008
:104D30003C000020F0B50B30154D20F00701002499
:104D4000144A0FE003688B420BD38B4205D95E1ADD
:104D500043184768C3E9006700E04368136002C076
:104D600004E0021D10680028ECD12046002802D182
:104D7000286808B10020F0BD064A07481060074ABD
:104D8000121A22F00702C0E9002401202860D7E7A8
:104D90007C01002078010020D4C10020D0C3002075
:104DA00000280FD008494A6890420BD38A68904285
:104DB00008D2083800220271CA68904200D2C86046
:104DC00000F08EBB70470000D000002010B50A48EC
:104DD0000A4A20F0030050604FF420530380002162
:104DE0004180017100F52051916001240C710B800C
:104DF0004B801470D06010BD43450020D0000020CF
:104E00002DE9F04100280ED0C01C4FF6FC7100EADD
:104E100001020C2A00D20C224FF42057BA4204D9C6
:104E20000020BDE8F0810020FBE7224DEE686B68B2
:104E3000F01A81B2C2F5205C38E0581804799CBBA6
:104E40000488641A083C94422FD3048802F11408A1
:104E5000641A083C4FF0010C444515D30A4408324B
:104E600094B21A194FF0000882F80480B0F800805C
:104E7000A2F800805180048080F804C01188B942F3
:104E800004D09A1C8C5201E080F804C0B04209D1D1
:104E9000AA6802E009881944E960E9680C790CB154
:104EA0009142F7D10830BCE7FFE7595A8C45C4DC82
:104EB0000020B6E7D00000202DE9F04FC91C4FF6C6
:104EC000FC7211400C2900D20C214FF4205C61458A
:104ED00002D90020BDE8F08FDFF8A490D9F8044093
:104EE000A042F7D3D9F808209042F3D2A0F10802EB
:104EF000131B9BB21588EE1A083E1FFA86FA51451D
:104F000002D94FF00000E5E7E4D025441C4E95F8A7
:104F100004B04FF00008F7687668BBF1000F06F1A7
:104F2000020616D001F114055545D3D819440831AD
:104F30008DB26119B94201D2C9F80C1081F8048010
:104F400014880C804B80158009886145C2D08D5330
:104F5000C0E7B5F800A01944083189B2AF4202D1C8
:104F60006518C9F80C500C4484F80480A4F800A01B
:104F70006380118022886245ACD09153AAE700007B
:104F8000D0000020002905D0034A52F820300B60E1
:104F900042F8201070470000546D0020F0B500204A
:104FA000401C80B20928FBD3104820F003010020E8
:104FB0000E4B0F4D0026273B05F1120443F82060ED
:104FC000002209E053F820700F6043F8201035F8F4
:104FD00010703944521C92B234F810709742F1D8D4
:104FE000401C80B20928E9D3F0BD00007B6D002091
:104FF000549F00080146092901D300207047044A44
:1050000052F821000028F9D0036842F82130704797
:10501000546D00202DE9F04106AD0446E0CD00209E
:105020006060A060E06084F8310020626062E56149
:105030000A4D287884F83400401C287027612046E7
:1050400000F013F82046B04710B10020BDE8F08111
:10505000686820606C602046F8E70000E0000020EF
:1050600090F8310000F00100704770B50646144614
:105070001D46304600F020F82146304600F050F83A
:1050800029463046BDE8704000F00FB801498860FD
:1050900070470000E000002090F83110CA0703D0EC
:1050A00021F0010180F831107047002902D0096811
:1050B000C16070470021FBE770B505460C46696882
:1050C000206888421ED0144800680AE001686A68B7
:1050D000914205D1C668012100F084FB304600E012
:1050E000C0680028F2D10D48006809E007D00168C7
:1050F00029B16A68914202D144B121680160C06857
:105100000028F3D12CB12068686070BD4FF0000119
:10511000F4E74FF00000F7E7040100200001002051
:10512000002902D00968816070470021FBE790F8F0
:105130003110CA0708D141F0010180F83110890609
:1051400002D5011DFEF73ABD7047FEF7B2BEFEF76D
:10515000BCBE2DE9F0470D4617460026002808D0B2
:10516000012807D0022807D0032807D00020BDE877
:10517000F08714261436B6B20E36B6B24FF00109D7
:105180004FF00008EFB3012F64D0022F62D0032F3D
:1051900001D00020EBE70820FFF72CFF0446200099
:1051A00019D02773C4F80080A019133020F0030031
:1051B00060602581F61C26F00300C0F5FA70A84255
:1051C00000DD284680B26081A4F80E9026462D1A94
:1051D0004FF4FA7A1AE00020C9E70820FFF70AFF27
:1051E000B8B1077380F80D80C0F800803060A9B2B4
:1051F0000181514500D35146418100F110024260C6
:1052000000E00BE0A0F80E906D1A0646002DE4DCDD
:105210002CE0204600F0DAF80020A8E706F11300A1
:1052200020F00301E81C20F00300084480B2FFF7DF
:10523000E7FD044620000BD0A019133020F0030036
:10524000606025816581C4F8008084F80C800DE0E1
:1052500000208CE70720FFF7CDFE044664B1C4F8B8
:10526000048025816581C4F800802773A4F80E901E
:1052700084F80D8020467AE7002078E710B50028F2
:105280000FD000290DD004E003890C892344038149
:1052900010460268002AF7D102890B891A4402815C
:1052A000016010BD10B50C462146FFF7E7FF204610
:1052B000BDE8104000F00EB9002102E0491CC9B25F
:1052C00000680028FAD1084670472DE9F0470546E6
:1052D0000C4600260027002D04D01CB12889218906
:1052E000884203D26FF00900BDE8F0876FF008092B
:1052F00068896189801BC91B884202DB1FFA81F81B
:1053000001E01FFA80F860684246C11968683044BD
:10531000FAF7AAFF06EB080086B207EB080087B28F
:105320006889B04201D100262D686089B84201D851
:10533000002724683CB160892189884203D1206814
:1053400008B14846D0E73DB168892989884203D130
:10535000286808B14846C7E7002CC9D10020C3E738
:105360002DE9F047894616464FF00008002805D081
:10537000B9F1000F05D00027044622E00020BDE867
:10538000F0870020FBE72BB16089984202D8181AF9
:1053900083B215E06089C01A85B2B54200D935469E
:1053A00060682A46C11809EB0700FAF75DFF08EBB1
:1053B00005001FFA80F8781987B2701B86B20023A7
:1053C00024680EB1002CDED14046D8E770B5002825
:1053D00001D0002407E0002070BDC189491E89B2B8
:1053E000C18121B100200028F7D1204670BD056899
:1053F000017B032909D001290CD002290AD0FFF72B
:10540000CFFC641CE4B22846EDE701460820FFF714
:10541000B9FDF6E701460720FFF7B4FDF1E710B547
:10542000002908D038B108DA4A4293B242899A4238
:1054300004D2012010BD002010BD8BB2027B446855
:105440003AB1032A05D0022A0CD0012A0AD0012041
:1054500010BD621A426000F110039A4209D2446002
:10546000012010BD00290CDA42899A4209D3621A40
:10547000426042890A44428102891144018100202C
:1054800010BD012010BD70B502898A4221D98A1A47
:105490000D46044605E0281A85B220891044208173
:1054A00024686089A842F6D3207B50B96089A8425D
:1054B00007D0A088001B284481B22046FFF7FCFCDF
:1054C000044665812581206808B1FFF77FFF002031
:1054D000206070BD002802D0C189491CC18170477D
:1054E00030B5134C018862681144931C88420DD07A
:1054F0000D795DB9A568A94208D0E5688D4200D153
:10550000E0600D8805800988851ACD5241881144D4
:1055100081420BD00D79002D08D1E568854200D17C
:10552000E16004880C800088891AC15230BD0000F7
:10553000D00000202DE9F05F81460027D9F80480D3
:10554000B8F80800FFF703FE00F0FF0A0025DFF8B7
:1055500048B0DBF8004018E0207C504513D1666964
:105560008EB108F10C034A462146A069B04750B1FC
:105570004FF00009012735B1E068E860DBF8000072
:10558000E060CBF800402546E4680FB9002CE3D179
:105590003846BDE8F09F0000EC00002070B50446DE
:1055A0000D46FCF755F9C08800EB800080B2FBF790
:1055B000D7FFFCF74DF9C0884FF6FF7100EB4000B4
:1055C00001EA4000FBF7CCFFFCF742F9C088C0EBD2
:1055D000C00080B2FBF7C4FF0D484461856100F054
:1055E000D1FE0C4C20610C4901F042FDFCF730F972
:1055F000C0880AA100EB800080B2FCF793F804F1A8
:1056000014012069BDE870400B4B502200F0F2B944
:10561000F0010020480000203D5600082020436F84
:105620006E6E656374696E6720746F207365727641
:1056300065722E2E2E000000C92D0008F0B587B02F
:1056400014461F46FCF704F9C08800EB800080B2C6
:10565000FBF786FFFCF7FCF8C0884FF6FF7600EBFF
:10566000400006EA4000FBF77BFFFCF7F1F8C0883A
:10567000C0EBC00080B2FBF773FFFCF7E9F8C0880D
:1056800038A100EB800080B2FCF74CF83A4D04B131
:105690009FB1FCF7DDF8C08838A100EB400006EAB6
:1056A0004000FCF73FF82046FFF790FE2869FDF721
:1056B000EBFB6FF0040007B0F0BD2189286901F011
:1056C000EDFC676831A13846FAF7F2FD002835D0C5
:1056D000002005902FA13846FAF7EAFD001D06903C
:1056E000069808B3FCF7B4F8C0882CA100EB400082
:1056F00006EA4000FCF716F801222BA10698FAF7FB
:1057000014FE10B96888401C68806A8827A1684622
:10571000FDF766F9FCF79CF8C0886946C0EBC0004D
:1057200080B2FBF7FFFF15E0FCF792F8C08822A1DA
:10573000C0EBC00080B2FBF7F5FF0BE00120059045
:10574000FCF786F8C08823A100EB400006EA400081
:10575000FBF7E8FF2046FFF739FE2869FDF794FBC9
:105760000020A8E7202044617461207265636965A8
:105770007665642E00000000480000202020486F5D
:10578000737420636C6F7365642E000032303020B8
:105790004F4B00000D0A0D0A000000002020485465
:1057A0005450204F4B000000300000002020436F79
:1057B000756E743A2575000020204661696C656439
:1057C00020746F206C6F616420636F6E74656E74FB
:1057D0002E000000202048545450204552524F5271
:1057E000000000002DE9FF5F04468846207C0A285F
:1057F00032D0D4F85890D4F824A0BCB320680290DA
:10580000201D36D060680390278B268CD4F89050EA
:10581000D4F814B02146184800F0B6FFA06F08B1C4
:1058200001F024FD606F08B101F020FD2146022047
:10583000FFF7A8FB1DB16FF004015846A847B8F167
:10584000000F07D0CDE9007603AB02AA51464846C7
:1058500001F0ADFCBDE8FF9F07482146001D00F0A8
:1058600093FF21460220FFF78DFBF3E7FFE70020BF
:10587000C5E70020C7E700000401002070B5054619
:105880000220FFF7B7FB044620000ED100F0EAFC2F
:105890000220FFF7AFFB0446200006D1284600F0A7
:1058A000BFFC0220FFF7A6FB04468CB3A0212046D4
:1058B000FAF7F3FC4020183404F8070C40F668307F
:1058C000A4F856000023A4F858302082608204F81F
:1058D0000E3CFF2004F80D0C4FF4067020840620C7
:1058E0002086A385E085C01FE0830120608700F04B
:1058F0007BFDE06420646063206506488068A061E9
:1059000023770548E0660548E06784F88530183C51
:10591000204670BDF00000207770000800DD6D00AB
:105920004161704770B504460526207C082856D290
:10593000DFE800F004212D394255554B00252C4954
:10594000C868A04202D1C068C8600CE0C86107E026
:10595000C068A04203D1C969E068C86003E0C861BB
:10596000C8690028F4D10020E06021460220FFF73A
:1059700009FB002435E000251D482146103000F0C9
:1059800003FF21460320FFF7FDFA002429E000254C
:1059900017482146143000F0F7FE21460220FFF799
:1059A000F1FA00241DE00121204601F06CFC0546BF
:1059B000280016D1267414E00121204601F063FC72
:1059C000054628000DD126740BE00121204601F088
:1059D0005AFC0546280004D10920207401E0002566
:1059E00000241CB115B9204600F006FD284670BD04
:1059F000F00000202DE9FC4104460F461E46207CA5
:105A0000002803D06FF00C00BDE8FC812FB138688E
:105A100060602284208B18B105E06FF00800F3E786
:105A200000F0B4FC208300F0DFFC002544F8245F84
:105A30006063401EA062606440F66830A080E08031
:105A4000A56020874FF40670A082394600F038F830
:105A5000A0820122E28500EB80004FF6FF7101EA8F
:105A600040002086022004F8140C6666243C13498A
:105A7000C868A04202D1C068C8600CE0C86107E0F5
:105A8000C068A04203D1CB69E068D86003E0C86178
:105A9000C8690028F4D14869E0604C61CDE9005242
:105AA000002202231146204600F01AF8054615B9D7
:105AB000204600F0A1FC2846A6E70000F0000020E8
:105AC00010B504460846FEF7ABFF38B1008D28B18B
:105AD000283880B2844200D220460446204610BDB9
